:020000040800F2
:1000000060790620ED020008AB880008C7420008AE
:10001000F9020008A70A0008F5A600080000000081
:10002000000000000000000000000000098E000831
:10003000A90D000800000000658C0008C18E0008B2
:100040000703000807030008070300080703000868
:100050000703000807030008070300080703000858
:100060000703000807030008070300080703000848
:100070000703000807030008070300080703000838
:100080000703000807030008070300080703000828
:100090000703000807030008070300080703000818
:1000A0000703000807030008070300080703000808
:1000B000070300082D8F0008070300080703000846
:1000C00007030008070300080703000807030008E8
:1000D0000703000855A600080703000807030008E7
:1000E00007030008070300080703000807030008C8
:1000F00007030008070300080703000807030008B8
:1001000007030008070300080703000807030008A7
:100110000703000807030008070300080703000897
:100120000703000807030008070300080703000887
:100130000703000807030008070300080703000877
:100140000703000807030008070300080703000867
:100150000703000807030008070300080703000857
:100160000703000807030008070300080703000847
:100170000703000807030008070300080000000049
:100180000703000807030008070300080703000827
:100190000703000807030008070300080703000817
:1001A0000703000807030008070300080703000807
:1001B00007030008070300080703000807030008F7
:1001C00007030008070300080000000007030008F9
:1001D00007030008070300080703000807030008D7
:1001E00007030008070300080703000807030008C7
:1001F000070300080703000800F002F800F067F8A2
:100200000AA090E8000C82448344AAF10107DA4571
:1002100001D100F05CF8AFF2090EBAE80F0013F05C
:10022000010F18BFFB1A43F001031847002904000F
:10023000202904000A444FF0000C10F8013B13F091
:10024000070408BF10F8014B1D1108BF10F8015B2F
:10025000641E05D010F8016B641E01F8016BF9D122
:1002600013F0080F1EBF10F8014BAD1C0C1B09D179
:100270006D1E58BF01F801CBFAD505E014F8016BEB
:1002800001F8016B6D1EF9D59142D6D3704700007D
:100290000023002400250026103A28BF78C1FBD88F
:1002A000520728BF30C148BF0B607047642900F077
:1002B0001F81782900F05881732900F011830020F4
:1002C00070471FB539F0EDFB1FBD10B510BD00F034
:1002D00041FB1146FFF7F5FF33F0C2F800F05FFB7A
:1002E00003B4FFF7F2FF03BC0CF04EFB0948804754
:1002F00009480047FEE7FEE7FEE7FEE7FEE7FEE708
:10030000FEE7FEE7FEE7FEE704480549054A064B1F
:1003100070470000C98E0008F901000860730620CC
:10032000607906206075062060750620704753EAE4
:10033000020C00F069802DE9F04B4FF00006002B15
:100340001FBFB3FA83F503FA05F424FA05F65E40FD
:1003500012BF1643B2FA82F502FA05F4C5F1200580
:100360001EBF22FA05FC44EA0C04203556EA044C70
:100370004FEA144418BF641C4FF000084FF0000906
:10038000904271EB030C39D3002919BFB1FA81F700
:1003900001FA07F6B0FA80F700FA07F6C7F120076E
:1003A0001EBF20FA07FC46EA0C062037B6FBF4FC19
:1003B000A7EB0507103F07F01F0BCBF120060CFA47
:1003C0000BFB2CFA06F644BFB3460026202FA4BF31
:1003D0005E464FF0000B5BEA060C08BF4FF0010BC6
:1003E00019EB0B09ABFB027C48EB0608C01B06FBB4
:1003F00002CC0BFB03CC71EB0C01C1E70B460246B0
:1004000041464846BDE8F08B13B54FF000004FF071
:100410000001AFF30080BDE81C4070470FB40449F1
:1004200010B503AA029800F05FFA10BC5DF814FB47
:100430000C0002202DE9F0410E4604460020206207
:100440002046E168884730B3252805D0D4E901214A
:100450009047206A401CF2E7E16820460027884761
:10046000050018D0A5F14100192802D820354FF415
:1004700000673246294620462760FFF717FF40B144
:10048000012804D0F61D26F007060836D8E7361DE9
:10049000D6E72846DAE7206ABDE8F08170B50C4659
:1004A0000546012A05D02878800600D5EA69002390
:1004B00002E0012305E05B1C934202D2E05C0028CD
:1004C000F9D1A869E618C01AA861286A18442862F8
:1004D0002846AFF3008004E0D5E9012114F8010BB0
:1004E0009047B442F8D32846AFF3008070BD0000B7
:1004F0002DE9F0410646002410687529314616A5FD
:1005000010D0AFF30080002802DA404213A507E0C4
:1005100031688A0701D512A502E0490704D511A563
:10052000012401E0AFF3008000210A2206F1240734
:1005300009E0B0FBF2FCB0FBF2F302FB1C00303030
:1005400078541846491C0028F3D123462A463046E1
:10055000BDE8F04100F059B9000000002D00000096
:100560002B0000002000000070B504460D46214617
:100570001068AFF300802188090502D50F4A7A443C
:1005800002E00E4A7A440E32002104F1240305E011
:1005900000F00F060009965D5E54491C0028F7D153
:1005A00020780023000704D5702D02D009B1022362
:1005B00011322046BDE8704000F027B9961F0400B4
:1005C00040EA0103024630B59B0710D14FF00134D9
:1005D00000E008C208C91D1B9D4315EAC41FF8D0DE
:1005E00013F0FF0102F8011B0DD01B0AF8E711F808
:1005F000013B002B02F8013B05D011F8013B002B19
:1006000002F8013BF3D130BD10B5431C02E010F8F5
:10061000011B71B18107FAD14FF0013202C88C1A67
:100620008C4314EAC211F9D0C01A0A0603D0C01EC6
:1006300010BDC01A10BD0A0401D0801E10BD0902F1
:10064000FCD0401E10BD032A40F2308010F0030C95
:1006500000F0158011F8013BBCF1020F624498BF15
:1006600011F801CB00F8013B38BF11F8013BA2F1B2
:10067000040298BF00F801CB38BF00F8013B11F02D
:10068000030300F02580083AC0F0088051F8043BCD
:10069000083A51F804CBA0E80810F5E7121D5CBF3A
:1006A00051F8043B40F8043BAFF30080D20724BF6D
:1006B00011F8013B11F801CB48BF11F8012B24BF01
:1006C00000F8013B00F801CB48BF00F8012B704750
:1006D00010B5203AC0F00B80B1E81850203AA0E8DD
:1006E0001850B1E81850A0E81850BFF4F5AF5FEA11
:1006F000027C24BFB1E81850A0E8185044BF18C9C4
:1007000018C0BDE810405FEA827C24BF51F8043B6A
:1007100040F8043B08BF7047D20728BF31F8023BBE
:1007200048BF11F8012B28BF20F8023B48BF00F852
:10073000012B70474FF0000200B5134694469646D1
:10074000203922BFA0E80C50A0E80C50B1F12001E4
:10075000BFF4F7AF090728BFA0E80C5048BF0CC092
:100760005DF804EB890028BF40F8042B08BF7047F0
:1007700048BF20F8022B11F0804F18BF00F8012B62
:10078000704700004FF0013C50F8042B51F8043B37
:100790009A4215D1A2EB0C03934313EACC130BD16D
:1007A00050F8042B51F8043B9A4209D1A2EB0C03F8
:1007B000934313EACC13E7D04FF00000704700BF1B
:1007C000D01A01BAB1FA81F101F0180122FA01F050
:1007D000CB40C1F12001DBB2C0B2C01A2CFA01F348
:1007E000D11A914311EAC311E6D17047704770479F
:1007F0007047704710B500F089F8006810BD10B55B
:10080000044600F083F8046010BD2DE9F0470D4662
:1008100099469246044600F124080168880604D5EA
:10082000E06921F01001216000E00120A84201DD13
:10083000471B00E00027A1697A1902EB0900081A9A
:10084000A0612078C00602D42046AFF300800026C5
:1008500008E0D4E901211AF806009047206A401CFC
:10086000761C20624E45F4DB2078C0060AD520466F
:10087000AFF3008006E0D4E9012130209047206AE0
:10088000401C2062381EA7F10107F4DC07E0D4E920
:10089000012118F805009047206A401C2062281E9C
:1008A000A5F10105F3DC2046AFF3008020780006B7
:1008B00002D50220BDE8F0870120FBE710B54369AF
:1008C00013B1AFF3008001E0FFF7E8FD012010BD98
:1008D000127800F124010A7000224A700122EDE72B
:1008E00011684FF0FF32E9E7074B70B50D467B44C6
:1008F00000F015F80446284600F024F810B14FF037
:10090000FF3070BD204670BD7B82010000487047FB
:100910000073062001694A1C02610878704700B51F
:100920008FB0CDE901310021059105497944CDE928
:10093000031011466846FFF77DFD0FB000BD0000B3
:10094000E5FFFFFF007B00F0800070470048704724
:10095000007306207546FFF7F9FFAE4605006946AD
:10096000534620F00700854618B020B5FFF7CCFCB1
:10097000BDE820404FF000064FF000074FF00008A0
:100980004FF0000B21F00701AC46ACE8C009ACE821
:10099000C009ACE8C009ACE8C0098D46704710B585
:1009A0000446AFF300802046BDE81040FFF798BC36
:1009B00010B503F0B5FC10BD70B506460C461546E3
:1009C00008E03046721C96B200F007F804F8010BFC
:1009D000681E85B2002DF4D170BD70B504460026A6
:1009E00003F068FD2546E11704EB11610912A0220E
:1009F00002EB4101C8B203F01FFD03F0AFFDE117A8
:100A000004EB11610912A4EB0121C8B203F014FD3B
:100A100003F0A4FD03F04EFDA12003F00DFD03F053
:100A20009DFD002003F0D2FC064603F06DFD30462C
:100A300070BD70B505460C46164606E0217828467E
:100A400000F009F8681C85B2641C301EA6F1010193
:100A50008EB2F3D170BD70B504460E4603F02AFD88
:100A60002546E11704EB11610912A02202EB4101B6
:100A7000C8B203F0E1FC03F071FDE11704EB116172
:100A80000912A4EB0121C8B203F0D6FC03F066FD05
:100A9000304603F0D1FC03F061FD03F035FD0A2080
:100AA0000EF01AFC70BD00BFFEE710B502200EF07C
:100AB0001FFC10BD10B5002208210D4801F00CFCF0
:100AC000FFF7F3FF012240210A4801F005FCFFF780
:100AD000ECFF00224021074801F0FEFBFFF7E5FF95
:100AE00001220821024801F0F7FBFFF7DEFF10BDED
:100AF00000200240001C024000B587B000BF17482C
:100B0000006840F08000154908600846006800F061
:100B10008000019000BF00BF00BF0846006840F49D
:100B2000807008600846006800F48070019000BF83
:100B300000BF402002901120039001200490032068
:100B4000059002A9064801F0B3FA0820029002A914
:100B5000044801F0ADFA07B000BD00003038024093
:100B6000001C02400020024010B5012208210A4862
:100B700001F0B2FBFFF799FF01224021074801F085
:100B8000ABFBFFF792FF00224021044801F0A4FBD9
:100B9000FFF78BFF10BD000000200240001C024048
:100BA00070B505460024002618E06006040E0122F8
:100BB00040210F4801F090FBFFF777FF08210D4817
:100BC00001F082FB08B1601CC4B200224021084839
:100BD00001F082FBFFF769FF701CC6B2082EE4DB50
:100BE00015B9FFF7C1FF01E0FFF764FF204670BDB4
:100BF000001C02400020024070B5044600251EE0A3
:100C0000E00928B101220821114801F065FB04E048
:100C1000002208210E4801F05FFBFFF746FF01228A
:100C200040210C4801F058FBFFF73FFF0022402114
:100C3000084801F051FB6006040E681CC5B2082D7F
:100C4000DEDB01220821024801F046FB70BD0000F6
:100C500000200240001C024010B5012208210C486F
:100C600001F03AFB012240210A4801F035FBFFF771
:100C70001CFF00220821064801F02EFBFFF715FF9C
:100C800000224021034801F027FBFFF70EFF10BDB3
:100C900000200240001C024010B5002208210A4832
:100CA00001F01AFBFFF701FF01224021074801F084
:100CB00013FBFFF7FAFE01220821034801F00CFBA9
:100CC000FFF7F3FE10BD000000200240001C0240B0
:100CD00070B50024002501220821134801F0FCFA18
:100CE000FFF7E3FE01224021104801F0F5FAFFF77B
:100CF000DCFE09E0601CC4B2FA2C03DDFFF7CCFF78
:100D0000012507E0FFF7D1FE0821074801F0DCFAD2
:100D10000028EFD100BF00224021044801F0DCFA96
:100D2000FFF7C3FE284670BD00200240001C0240B1
:100D300010B500BF00BF00BF00BF00BFBFF34F8FA3
:100D400000BF00BF00BF00BF00BF00BFBFF36F8F79
:100D500000BF00BF00BF00201149086011480068B3
:100D600040F400300F49086000BF00BF00BFBFF370
:100D70004F8F00BF00BF00BF00BF00BF00BFBFF369
:100D80006F8F00BF00BF00BF00BF07F06DFF0448BA
:100D90004C30006840F0040001494C31086010BD3F
:100DA00050EF00E014ED00E07047000070B504461D
:100DB0001D460023B5F5804F13D154F822300C485E
:100DC0000340D1E9000640EA06108E6840EA06209A
:100DD0008E8940EA06408E693043034344F822304E
:100DE00003E06FF0704044F82200002070BD000066
:100DF0000000F0CF10B502460023086852F82030FA
:100E00001B480340D1E901042043CC6820430C690E
:100E100020434C6920438C692043CC6920430C6AF1
:100E200020434C6A20438C6A2043CC6A20430C6BDD
:100E300020438C6B20434C6B204303438868082875
:100E400001D143F04003086842F82030086BB0F548
:100E5000801F05D1086818B110680C6B2043106022
:100E6000086818B110684C6B20431060002010BD5A
:100E70008004C0FF30B5034614460022601C53F8BE
:100E8000202002F04042D1E9000540EA05108D68BB
:100E900040EA05208D8940EA0545088A401E45EA5A
:100EA0000055087D801E45EA00608D692843024395
:100EB000601C43F82020186800F4801038B158688E
:100EC00020F47002088A401E42EA00525A60002054
:100ED00030BD30B50246002300240868012816D032
:100EE00013686FF30E03D1E901052843CD68284349
:100EF0000D6928434D6928438D692843CD692843EE
:100F00000D6A28434D6A28430343136019E01368B0
:100F100023F4F843D1E9070528434D6A28430343E6
:100F200054686FF30E04D1E901052843CD682843C6
:100F30000D6928434D6928438D6928430443136094
:100F40005460002030BD0246506940EA41005061C3
:100F500000207047F8B506460C4615460020009064
:100F60000027D4E900010843A168491E40EA411066
:100F7000E16840EA412000900098306101F0B2F948
:100F8000074609E0681C38B125B101F0ABF9C01B78
:100F9000A84201D90320F8BDB06900F02000002864
:100FA000F0D100BFF7E7000070B5034615460022F8
:100FB0000024012D1FD09A6802F070420868401E7C
:100FC0004E68761E40EA06168868401E46EA0026ED
:100FD000C868401E46EA0036088A401E46EA0046B7
:100FE000888A401E46EA0056087E401E46EA006097
:100FF00002439A6022E09A6811480240C868401E85
:101000000603888A401E46EA00500243DC6804F06A
:1010100070440868401E4E68761E40EA06168868CE
:10102000401E46EA0026088A401E46EA0046087E20
:10103000401E46EA006004439A60DC60002070BDF8
:10104000FF0F0FFF10B588B0012400BF554800689E
:1010500040F08000534908600846006800F08000B6
:10106000009000BF00BF00BF0846006840F48070D9
:1010700008600846006800F48070009000BF00BF60
:101080008020019000200290012003900320049012
:1010900001A9454801F00CF82002019001200290BE
:1010A00001A9424801F004F8FFF726FD00222102C1
:1010B0003E4801F011F914200EF00EF90122110240
:1010C0003A4801F009F932200EF006F900208DF8B7
:1010D0001800022206A9A12000F078F89DF8180057
:1010E000302803D19DF81900032807D09DF8190076
:1010F000012803D09DF81900022824D19DF8190079
:101100009DF8182000EB022129A0FFF787F90122A2
:1011100006A9002000F03AFA012206A9A42000F056
:1011200035FA16208DF81800012206A9802000F05B
:101130002DFA0C208DF81800012206A9882000F055
:1011400025FA00242BE0042206A948F2401000F002
:101150001BFB00208DF81C0006A918A0FFF75EF904
:1011600019480699016002208DF81800012206A98D
:1011700048F2400000F016FD012206A948F247009F
:1011800000F002FB0A200EF0A7F800208DF81800EE
:10119000012206A948F2400000F004FD0024204688
:1011A00008B010BD30380240001C02400020024050
:1011B0004354502049443A25780D0A0043545020A6
:1011C00049443A25730D0A00240002202DE9F0411C
:1011D00006460F461546FFF73FFD7020FFF70CFD52
:1011E000FFF776FDF0B2FFF707FDFFF771FDFFF7A0
:1011F00033FD7120FFF700FDFFF76AFD00240BE0CF
:10120000691EA14201D0012100E000210846FFF73C
:10121000C7FC3855601CC4B2AC42F1DBFFF73CFDA3
:10122000BDE8F08171B583B0002001900026CF4861
:101230000078401CCD490870084600780A2190FBD0
:10124000F1F201FB120018B1C84800780A287DDAD3
:10125000C7A1C848FFF796FAD8B9012203A948F2F6
:101260004E1000F091FA9DF80C0000F08000A8B13B
:101270009DF80C0000F00F00BF49097888420DDC92
:1012800000200190012201A948F24E1000F08AFCD2
:1012900004E0012203A90220FFF798FF9DF80C004B
:1012A00000F00F00002851D09DF80C0000F00F0056
:1012B000B1490978884249DC9DF80C0000F00F0123
:1012C000FF208840C4B2AD48858EE04380B240F034
:1012D000C000AA49888608468289A7480078401E2F
:1012E0000C3121F81020A548028CA3480078401E3C
:1012F000143121F8102004200DF0EEFF00200190A1
:10130000AAE09E48808E9DF804200121914008406B
:1013100000282FD096A19748FFF734FAE8BB9849E8
:101320009DF8042031F81200042202A900F02CFAE2
:10133000924890F8440000F00100E0B19DF80800E8
:101340009DF8091000EB012081B200E0C2E08B485B
:101350000C309DF8042020F812109DF80A009DF82A
:101360000B1000EB012081B2844820309DF804204E
:1013700020F812106BE09DF808009DF8091000EBB2
:10138000012081B27D4820309DF8042020F8121001
:101390009DF80A009DF80B1000E00CE000EB012026
:1013A00078490988081A81B274480C309DF80420E5
:1013B00020F812104BE074499DF8042031F8120017
:1013C000042202A9FFF702FF6C4890F8440000F0E5
:1013D0000100E0B19DF809009DF8081001F00F012F
:1013E00000EB0120654920319DF8042021F812000E
:1013F0009DF80B009DF80A1001F00F0100EB012091
:101400005E490C319DF8042021F812001FE09DF880
:1014100009009DF8081001F00F0100EB0120594967
:101420000988081A81B255480C309DF8042020F82C
:1014300012109DF80B009DF80A1001F00F0100EB4F
:1014400001204E4920319DF8042021F812009DF81A
:101450000400401CC0B201909DF804004649097880
:101460008842FFF64EAF01264448808945490988E5
:10147000884205DC4148008C42494988884226DD83
:101480009DF80C0000F00F0001280ADD3B48C089E0
:101490003A4988810846408C088400203349087006
:1014A00018E035480078401E34490C3131F81000FE
:1014B0000C39888130480078401E203131F8100006
:1014C00020390884802003900846858602E00020A9
:1014D0002649087026A12748FFF754F9F0B99DF86E
:1014E0000C0000F08F00802835D1244890F834009B
:1014F00000F0800030B12148808E20F080001F492C
:10150000888628E04FF6FF701C49888108840846C9
:1015100090F8340000F0E00088861CE09DF80C0094
:1015200000F01F00B8B9154890F8340000F08000B2
:1015300030B11248808E20F08000104988860AE081
:101540004FF6FF700D4988810884084690F83400F2
:1015500000F0E000888605480078F02802DD0A20C7
:1015600002490870304604B070BD00002A00022015
:1015700039313100240002202900022030000220ED
:101580000EE203084404022004E203082DE9F041BE
:1015900005460E4617464FF00008FFF75DFB70202A
:1015A000FFF72AFBFFF794FBE8B2FFF725FBFFF7F5
:1015B0008FFB00240BE0305DFFF71EFBFFF788FB7D
:1015C0008046B8F1000F00D003E0601CC4B2BC42FA
:1015D000F1DB00BFFFF760FB4046BDE8F081000093
:1015E00000B589B000BF5548006840F080005349FD
:1015F00008600846006800F08000019000BF00BF4E
:1016000000BF0846006840F4807008600846006823
:1016100000F48070019000BF00BF80200290002085
:101620000390012004900320059002A9444800F093
:101630003FFD4FF4807002900120039002A94148C1
:1016400000F036FDFFF758FA00224FF480713D4854
:1016500000F042FE0A200DF03FFE0122110239483F
:1016600000F03AFE0A200DF037FE802002900020A4
:10167000039004900320059002A9314800F018FD62
:1016800064200DF029FE042207A948F2401000F062
:101690007BF800208DF8200007A92BA0FEF7BEFEE6
:1016A0002CA107A8FFF76EF888B12BA107A8FFF7B8
:1016B00069F860B12AA107A8FFF764F838B12AA138
:1016C00007A8FFF75FF810B1012009B000BD22A103
:1016D00007A8FFF757F870BB02208DF81C00012205
:1016E00007A948F2400000F05DFA012207A948F27C
:1016F000470000F049F89DF81C0060280DDA9DF8BD
:101700001C101BA0FEF78AFE1E48808845F210516F
:10171000884202D1012000F017FA0A200DF0DCFD0A
:1017200000208DF81C00012207A948F2400000F0BB
:1017300039FA0020C9E7FFE70020C6E73038024049
:10174000001C0240002002404354502049443A25E6
:10175000730D0A003931310039313437000000008F
:1017600031313538000000003932373100000000D7
:1017700044656661756C74205665723A25640D0A7D
:1017800000000000440402202DE9F04105460F4608
:101790001646FFF761FA2820FFF72EFAFFF798FAAE
:1017A0002812FFF729FAFFF793FAE8B2FFF724FAB5
:1017B000FFF78EFAFFF750FA2920FFF71DFAFFF71F
:1017C00087FA00240BE0711EA14201D0012100E044
:1017D00000210846FFF7E4F93855601CC4B2B44252
:1017E000F1DBFFF759FABDE8F081000071B583B075
:1017F00000240026D0480078401CCF4908700846D5
:1018000000780A2190FBF1F201FB120018B1CA48DE
:1018100000780A2871DA012203A948F24E10FFF776
:10182000B3FF9DF80C0000F0800068B19DF80C003B
:1018300000F00F00062807DA00200190012201A91C
:1018400048F24E1000F0AEF99DF80C0000F00F00C9
:10185000002852D09DF80C0000F00F000628D9DABD
:101860009DF80C0000F00F01FF208840C0B20190ED
:10187000B24890F834509DF80400C04380B240F064
:10188000C000AE498886084681898182018C018525
:101890000024F9E0A948808E0121A14008400028D9
:1018A0002AD0A74931F81400042202A9FFF76CFFDF
:1018B000A448808845F21051884236D19F4890F85C
:1018C000440000F00100C8B19DF808009DF809101F
:1018D00000EB012081B29948203020F814109DF8C7
:1018E0000A009DF80B1000EB0120C0F5487081B292
:1018F00092480C3020F81410C4E0F5E09DF8080080
:101900009DF8091000EB012081B28C480C3020F8C2
:1019100014109DF80A009DF80B1000EB012081B215
:101920008648203020F81410ACE08648808844F2C5
:101930004231884235D1814890F8440000F00100DE
:10194000B0B19DF808009DF8091000EB012081B2AC
:101950007A480C3020F814109DF80A009DF80B10FE
:1019600000EB012081B27548203020F8141089E086
:101970009DF808009DF8091000EB012081B26F4826
:10198000203020F814109DF80A009DF80B1000EB91
:101990000120C0F5887081B268480C3020F814101E
:1019A00070E06848808844F28431884235D16348C9
:1019B00090F8440000F00100B0B19DF808009DF8D7
:1019C000091000EB012081B25C480C3020F81410A3
:1019D0009DF80A009DF80B1000EB012081B25748DA
:1019E000203020F814104DE09DF808009DF80910F3
:1019F00000EB012081B25148203020F814109DF8EE
:101A00000A009DF80B1000EB0120C0F5F07081B2C8
:101A10004A480C3020F8141034E0484890F844004C
:101A200000F00100C0B19DF808009DF8091000EB1E
:101A3000012081B24148203020F814109DF80A009E
:101A40009DF80B1000EB0120C0F5487081B23B48B7
:101A50000C3020F8141015E09DF808009DF80910CE
:101A600000EB012081B235480C3020F814109DF8AD
:101A70000A009DF80B1000EB012081B22F482030A6
:101A800020F81410601CC4B2052CFFF603AF012629
:101A90002A4880892B490988884205DC2748008C20
:101AA0002849498888421CDD9DF80C0000F00F0091
:101AB00001280ADD2148C089204988810846408CD8
:101AC000088400201C4908700EE01C48808A1B49CD
:101AD00088810846008D088480200390084685860A
:101AE00002E00020144908709DF80C0000F08F00FF
:101AF000802817D1114890F8340000F0800030B1F0
:101B00000E48808E20F080000C4988860AE04FF64F
:101B1000FF700A4988810884084690F8340000F074
:101B2000E000888604480078F02802DD0A20024997
:101B30000870304604B070BD2B0002203000022037
:101B4000D0E203084404022038B5054600240020F2
:101B50008DF800008DF8015000BF09E09DF80000ED
:101B60000F49095D0844C0B28DF80000601CC4B282
:101B7000B82CF3D39DF80000C043401CC0B28DF8D0
:101B80000000B822064948F2470000F00BF8022294
:101B9000694648F2FF0000F005F8002038BD00005B
:101BA00018E203082DE9F04104460E4617464FF0AF
:101BB0000008FFF751F82820FFF71EF8FFF788F814
:101BC0002012FFF719F8FFF783F8E0B2FFF714F8D7
:101BD000FFF77EF800250BE0705DFFF70DF8FFF7CB
:101BE00077F88046B8F1000F00D003E0681CC5B25A
:101BF000BD42F1DB00BFFFF74FF84046BDE8F08182
:101C000000B589B000BF4748006840F080004549F2
:101C100008600846006800F08000019000BF00BF27
:101C200000BF0846006840F48070086008460068FD
:101C300000F48070019000BF00BF8020029000205F
:101C40000390012004900320059002A9364800F07B
:101C50002FFA4FF4807002900120039002A93348BC
:101C600000F026FAFEF748FF00224FF480712F485B
:101C700000F032FB0A200DF02FFB012211022B484D
:101C800000F02AFB0A200DF027FB802002900020A4
:101C9000039004900320059002A9234800F008FA5D
:101CA00064200DF019FB042207A948F2401000F04F
:101CB00055F800208DF8200007A91DA0FEF7AEFB07
:101CC0001FA107A8FEF75EFD48BB02208DF81C008F
:101CD000012207A948F24000FFF764FF012207A98B
:101CE00048F24700FFF750FD9DF81C00412807DA35
:101CF0009DF81C1014A0FEF791FB012000F068F97C
:101D00000A200DF0E9FA00208DF81C00012207A935
:101D100048F24000FFF746FF002009B000BD012057
:101D2000FBE7000030380240001C02400020024067
:101D30004354502049443A25730D0A0D0A0000000F
:101D4000393237310000000044656661756C7420DB
:101D50005665723A25640D0A000000002DE9F04135
:101D600005460F461646FEF777FF2820FEF744FF8C
:101D7000FEF7AEFF2812FEF73FFFFEF7A9FFE8B21D
:101D8000FEF73AFFFEF7A4FFFEF766FF2920FEF7F5
:101D900033FFFEF79DFF00240BE0711EA14201D02E
:101DA000012100E000210846FEF7FAFE3855601CCC
:101DB000C4B2B442F1DBFEF76FFFBDE8F081000072
:101DC00071B583B00020019000267D480078401C4A
:101DD0007B490870084600780A2190FBF1F201FB6C
:101DE000120018B1764800780A286EDA012203A999
:101DF00048F24E10FFF7B2FF9DF80C0000F0800093
:101E000068B19DF80C0000F00F000B2807DA0020E5
:101E10000190012201A948F24E1000F007F99DF847
:101E20000C0000F00F0000284FD09DF80C0000F0CF
:101E30000F000B28D9DA9DF80C0000F00F014FF6C7
:101E4000FF70884084B25F48858EE04380B240F0E6
:101E5000C0005C49888608468189C183018C41861F
:101E60000020019053E05748808E9DF80420012106
:101E70009140084040B354499DF8042031F81200C5
:101E8000062202A9FFF76AFF4E4890F8440000F0CE
:101E90000100D8B19DF80A009DF80B1000EB01205D
:101EA00081B2484820309DF8042020F812109DF897
:101EB00008009DF8091000EB012081B241480C3068
:101EC0009DF8042020F812101CE051E09DF80A0053
:101ED0009DF80B1000EB0120C0F5487081B2394825
:101EE0000C309DF8042020F812109DF808009DF891
:101EF000091000EB012081B2324820309DF8042007
:101F000020F812109DF80400401CC0B201909DF80A
:101F100004000A28A7DB01262A4880892B49098862
:101F2000884205DC2748008C2849498888421CDD06
:101F30009DF80C0000F00F0001280ADD2148C0893F
:101F4000204988810846408C088400201C4908707C
:101F50000EE01C48C08B1B4988810846408E0884CF
:101F6000802003900846858602E00020144908700E
:101F70009DF80C0000F08F00802816D1114890F8D1
:101F8000340000F0800030B10E48808E20F08000D8
:101F90000C49888609E04FF6FF700A498881088459
:101FA0000846808E00F46040888605480078F02856
:101FB00002DD0A2002490870304604B070BD0000FE
:101FC0002C0002203000022094E303084404022085
:101FD00038B50546002400208DF800008DF801502A
:101FE00000BF09E09DF800000F49095D0844C0B238
:101FF0008DF80000601CC4B2B82CF3D39DF800002B
:10200000C043401CC0B28DF80000BA22064948F215
:10201000470000F00BF80222694648F2FF0000F08A
:1020200005F8002038BD0000DAE203082DE9F04190
:1020300004460E4617464FF00008FEF70DFE282016
:10204000FEF7DAFDFEF744FE2012FEF7D5FDFEF79F
:102050003FFEE0B2FEF7D0FDFEF73AFE00250BE0B2
:10206000705DFEF7C9FDFEF733FE8046B8F1000F44
:1020700000D003E0681CC5B2BD42F1DB00BFFEF733
:102080000BFE4046BDE8F081014691F8350002287C
:1020900003D08020486501207047052081F8350075
:1020A0000868006820F001000A6810600020F3E76B
:1020B000F8B502460B46002100250024002000BF91
:1020C000E4E0012606FA01F51E6806EA0504AC42C2
:1020D00071D15E68022E02D05E68122E13D1CF0835
:1020E00002F1200656F827004E07F70E0F26BE40D5
:1020F000B0434F07FF0E1E69BE403043CF0802F1C8
:10210000200646F8270010684F000326BE40B04363
:102110001E7906F003064F00BE40304310605E6833
:10212000012E08D05E68022E05D05E68112E02D006
:102130005E68122E13D190684F000326BE40B04354
:102140004F00DE68BE4030439060506801268E40EC
:10215000B0431E79C6F300168E4030435060D068FD
:102160004F000326BE40B0434F009E68BE40304340
:10217000D0605E6806F08056B6F1805FA8D100BFDF
:10218000444E366846F48046424F3E603E463668CE
:1021900006F48046009600BF00BF3F4E8F0856F8F9
:1021A00027008E07370F0F26BE40B0433B4EB2428A
:1021B00002D100262EE068E0394EB24201D101265C
:1021C00028E0384EB24201D1022623E0364EB24218
:1021D00001D103261EE0354EB24201D1042619E09A
:1021E000334EB24201D1052614E0324EB24201D143
:1021F00006260FE0304EB24201D107260AE02F4EEC
:10220000B24201D1082605E02D4EB24201D1092685
:1022100000E00A268F073F0FBE4030431E4E8F0856
:1022200046F82700274E3068A0435E6806F48036E3
:10223000B6F5803F00D12043224E3060361D306815
:10224000A0435E6806F40036B6F5003F00D1204397
:102250001C4E361D3060361D3068A0435E6806F4A3
:102260008016B6F5801F00D12043164E0836306028
:10227000361D3068A0435E6806F40016B6F5001FF0
:1022800000D120430F4E0C363060491C1029FFF45A
:1022900018AFF8BD44380240083801400000024041
:1022A0000004024000080240000C024000100240FE
:1022B0000014024000180240001C024000200240AE
:1022C00000240240003C0140024613690B400BB160
:1022D000012000E0002070470AB1816101E00B0499
:1022E00083617047014800687047000004000220C5
:1022F00002480068401C0149086070470400022041
:1023000010B50848006840F40070064908600520D0
:1023100000F06CFA0F2000F007F800F01BFA002024
:1023200010BD0000003C024070B50446074800683C
:102330004FF47A71B0FBF1F5284601F0ADFC0022B4
:102340002146501E00F014FA002070BD000002204B
:1023500070B504460E46154600BF94F8A00001284B
:1023600001D1022070BD012084F8A00000BF02202E
:1023700084F8A10005EB850101EBC50204F13801E9
:1023800001EB820034223146FEF7A2F92A4631469B
:10239000204606F081F901202168486284F8A100F6
:1023A00000BF002084F8A00000BF00BFDAE70000F3
:1023B00070B50446002500260CB9012070BD94F8C4
:1023C000A10028B9002084F8A000204600F084F87D
:1023D000022084F8A1002068806920F07040216804
:1023E0008861D4E901010843E16808432169084391
:1023F00021688969084321688861206880683549B7
:10240000084021688860A08A050420688068A16966
:1024100029430843216888602068C0682D49084026
:102420002168C860A08B05042068C068216A294320
:1024300008432168C860206800692649084021686F
:102440000861A08C050420680069A16A294308433B
:1024500021680861206840691E4908402168486178
:10246000A08D050420684069216B29430843216839
:10247000486194F83500050294F836000604206897
:10248000C06A00F07F402168C86246EA050094F8FF
:10249000341008432168C96A08432168C86220686B
:1024A000406B40F00400216848632068406B40F0B6
:1024B0000200216848632068806940F001002168BB
:1024C00088610020C4F8A400012084F8A100002045
:1024D00074E7000000F800F010B586B0044600BFB5
:1024E0004748006840F08060454908600846006839
:1024F00000F08060009000BF00BF00BF404814386B
:10250000006840F400003E4914390860084600683D
:1025100000F40000009000BF00BF00BF0846006844
:1025200040F0020008600846006800F002000090D9
:1025300000BF00BF00BF0846006840F020000860F0
:102540000846006800F02000009000BF00BF00BFF8
:102550000846006840F0400008600846006800F047
:102560004000009000BF00BF00BF0846006840F078
:10257000800008600846006800F08000009000BFFE
:1025800000BF00BF0846006840F48070086008463D
:10259000006800F48070009000BF00BF2020019010
:1025A0000120029003900320049001A91548FFF731
:1025B0007FFD4FF480600190022002900020039084
:1025C000032004900E20059001A90F48FFF770FD2D
:1025D0004FF40C60019001A90C48FFF769FD4FF41E
:1025E0007E40019001A90A48FFF762FD40F2F760C2
:1025F000019001A90748FFF75BFD06B010BD000080
:102600004438024000040240001402400018024016
:10261000001C0240002002402DE9F04104460E4615
:102620001746984600BF94F8A000012802D1022066
:10263000BDE8F081012084F8A00000BF022084F8EA
:10264000A10008EB880000EBC80104F1380000EBA2
:1026500081052E60A86A30446860AF60E86A38443B
:10266000E86042462946204606F016F80120216817
:10267000486284F8A10000BF002084F8A00000BFD9
:1026800000BFD5E72DE9F04105460E4617469846AE
:1026900000BF95F8A000012802D10220BDE8F0811A
:1026A000012085F8A00000BF022085F8A10008EBFA
:1026B000880000EBC80105F1380000EB8104002020
:1026C00020602068304460600020A060A06838442A
:1026D000E060A662E76242462146284605F0DCFF3C
:1026E00001202968486285F8A10000BF002085F814
:1026F000A00000BF00BFD1E74178154A1160017802
:10270000F9B1121D41681160017B0907C27A41EAE3
:102710000261827A41EAC241427B41EA8241827B84
:1027200041EA4241C27B41EA0241427A41EA022146
:10273000027A41EA420102781143054A08321160E7
:1027400005E00021024A121D1160121D1160704740
:1027500098ED00E0704700BF00F01F02012191409A
:102760004209920002F1E022C2F8001100BF704756
:102770002DE9F05F80460D461646002706F096F8D4
:10278000074639462A46334601F00700C0F1070ADA
:10279000BAF1040F02D94FF0040A01E0C0F1070AB0
:1027A000D14600F1040ABAF1070F02D24FF0000A35
:1027B00001E0A0F1030AD4464FF0010A0AFA09FA2F
:1027C000AAF1010A0AEA020A0AFA0CFA4FF0010B0E
:1027D0000BFA0CFBABF1010B0BEA030B4AEA0B04FF
:1027E0002146404606F06AF8BDE8F09F00BF00F0C1
:1027F0000702064B19684FF6FF031940044B0B43C1
:1028000043EA0221014B196000BF70470CED00E064
:102810000000FA0538B5002400BF2048006840F0E9
:1028200080501E4908600846006800F08050009003
:1028300000BF00BF1A48006840F4803018490860A3
:10284000FFF750FD044607E0FFF74CFD001BB0F515
:102850007A7F01D9032038BD1148406800F48030E8
:10286000B0F5803FF0D10E48006840F400300C49CC
:102870000860FFF737FD044607E0FFF733FD001B54
:10288000B0F57A7F01D90320E5E70548406800F4F8
:102890000030B0F5003FF0D10020DCE740380240C6
:1028A000007000402DE9F84304460026002500276B
:1028B000A846A946207800F0010088B100BFFE4874
:1028C000006820F40000FC49086008460068616B5D
:1028D0000843F949086000BF606B08B94FF0010870
:1028E000206800F40020B0F5002F13D1F2488430A6
:1028F000006820F44010E16B0843EF498431086020
:10290000E06BB0F5801F01D14FF00108E06B08B912
:102910004FF00109206800F48010B0F5801F13D13A
:10292000E5488430006820F44000216C0843E24907
:1029300084310860206CB0F5800F01D14FF00108A0
:10294000206C08B94FF00109206800F08070B0F1E8
:10295000807F01D14FF00108207800F0200020286E
:1029600070D100BFD4483830006840F08050D24960
:10297000383108600846006800F08050009000BFC1
:1029800000BFCE48006840F48070CC490860FFF773
:10299000A9FC064607E0FFF7A5FC801B642802D9C6
:1029A0000320BDE8F883C548006800F48070002863
:1029B000F1D0C1486830006800F4407585B3208EBE
:1029C00000F44070A8422BD0BB486830006820F467
:1029D0004075B9486830006840F48030B6496831C5
:1029E00008600846006820F48030086008460560EA
:1029F000006800F0010098B1FFF774FC064608E09B
:102A0000FFF770FC801B41F28831884201D9032016
:102A1000C7E7A94868300068C0F340000028EFD03D
:102A200000BF208E00F44070B0F5407F0BD1A2486B
:102A3000006820F4F810A24A216B114008439E4917
:102A4000086006E010E09C48006820F4F8109A49FD
:102A50000860994868300068218EC1F30B01084373
:102A600095496831086000BF207800F010001028F8
:102A700010D100BF90488430006820F080708E49EB
:102A80008431086008460068A16B08438A49843194
:102A9000086000BF208800F48040B0F5804F09D165
:102AA00085488830006820F44030616E08438249D0
:102AB00088310860208800F40040B0F5004F09D14B
:102AC0007D488830006820F44020A16E08437A4990
:102AD00088310860206800F48030B0F5803F09D16B
:102AE00075488830006820F44010E16E0843724950
:102AF00088310860206800F40030B0F5003F09D14B
:102B00006D488830006820F44000216F08436A490E
:102B100088310860207800F04000402809D16648DC
:102B20008830006820F00300616C084362498831F6
:102B30000860207800F08000802809D15E48883045
:102B4000006820F00C00A16C08435B4988310860E4
:102B5000208800F48070B0F5807F09D15648883015
:102B6000006820F03000E16C084353498831086068
:102B7000208800F40070B0F5007F09D14E488830FD
:102B8000006820F0C000216D08434B49883108607F
:102B9000208800F48060B0F5806F09D14648883005
:102BA000006820F44070616D084343498831086033
:102BB000208800F40060B0F5006F09D13E488830ED
:102BC000006820F44060A16D08433B4988310860EB
:102BD000208800F48050B0F5805F09D136488830F5
:102BE000006820F44050E16D0843334988310860A3
:102BF000208800F40050B0F5005F09D12E488830DD
:102C0000006820F44040216E08432B498831086059
:102C1000206800F48000B0F5800F09D12648883084
:102C2000006820F08060A16F084323498831086064
:102C3000206800F40010B0F5001F0FD11E48883046
:102C4000006820F00060E16F08431B49883108608C
:102C5000E06FB0F1006F01D14FF00109207800F072
:102C60000800082801D14FF00109206800F48020F5
:102C7000B0F5802F09D110488830006820F04070EE
:102C8000616F08430C4988310860206800F4000037
:102C9000B0F5000F0AD108488830006820F0805055
:102CA000D4F880100843044988310860206800F097
:102CB0008060B0F1806F05E008380240007000408D
:102CC000FFFCFF0F08D1FE48006820F00050D4F848
:102CD00084100843FA490860206800F00060B0F1F1
:102CE000006F0AD1F648001F006820F00070D4F889
:102CF00088100843F249091F0860206800F08050DE
:102D0000B0F1805F0AD1EE48001F006820F08060BB
:102D1000D4F88C100843EA49091F0860B8F1010F84
:102D200003D02068B0F1007F7DD1E548903800687D
:102D300020F08060E24990390860FFF7D3FA064638
:102D400006E0FFF7CFFA801B642801D9032028E6AC
:102D5000DB4890380068C0F3C0600028F1D12078CB
:102D600000F00100F0B3606BE0BBD5480C380068A0
:102D700000F440304FF4403191FAA1F1B1FA81F101
:102D800020FA01F5CE480C38006800F070604FF072
:102D9000706191FAA1F1B1FA81F120FA01F747F6D9
:102DA000C07191FAA1F1B1FA81F1606888404FF4E5
:102DB000403191FAA1F1B1FA81F105FA01F108432C
:102DC0004FF0706191FAA1F1B1FA81F107FA01F1C6
:102DD00008434FF0E04292FAA2F2B2FA82F2A168FE
:102DE000914000E003E00843B5490C3908602068D1
:102DF00000F40020B0F5002F03D1E06BB0F5801F88
:102E000009D0206800F48010B0F5801F50D1206CEC
:102E1000B0F5800F4CD1AA480C38006800F440305F
:102E20004FF4403100E0CFE091FAA1F1B1FA81F125
:102E300020FA01F5A2480C38006800F0E0404FF09D
:102E4000E04191FAA1F1B1FA81F120FA01F747F6D8
:102E5000C07191FAA1F1B1FA81F1606888404FF434
:102E6000403191FAA1F1B1FA81F105FA01F108437B
:102E70004FF0706292FAA2F2B2FA82F2E1689140E7
:102E800008434FF0E04191FAA1F1B1FA81F107FA5C
:102E900001F108438A490C3908608948001F00681D
:102EA00020F01F00616A491E08438549091F086018
:102EB000206800F08070B0F1807F3FD180480C38EE
:102EC000006800F070604FF0706191FAA1F1B1FA02
:102ED00081F120FA01F57A480C38006800F0E040F2
:102EE0004FF0E04191FAA1F1B1FA81F120FA01F736
:102EF00047F6C07191FAA1F1B1FA81F1606888409A
:102F00004FF4403292FAA2F2B2FA82F22169914071
:102F100008434FF0706191FAA1F1B1FA81F105FA1D
:102F200001F108434FF0E04191FAA1F1B1FA81F1CA
:102F300007FA01F1084362490C390860206800F083
:102F40000070B0F1007F25D147F6C07191FAA1F170
:102F5000B1FA81F1606888404FF4403292FAA2F2EF
:102F6000B2FA82F22169914008434FF0706292FAFE
:102F7000A2F2B2FA82F2E168914008434FF0E042D7
:102F800092FAA2F2B2FA82F2A168914008434C4947
:102F90000C3908604A489038006840F08060484921
:102FA00090390860FFF79EF9064606E0FFF79AF9A8
:102FB000801B642801D90320F3E44148903800685D
:102FC000C0F3C0600028F1D0B9F1010F69D13C48CD
:102FD0009038006820F08050394990390860FFF738
:102FE00081F9064606E0FFF77DF9801B642801D9C8
:102FF0000320D6E4324890380068C0F340700028BF
:10300000F1D1206800F40020B0F5002F01D1E06B71
:1030100038B1206800F48010B0F5801F4FD1206CCB
:10302000F0BB27480838006800F440304FF44031C6
:1030300091FAA1F1B1FA81F120FA01F5204808389E
:10304000006800F0E0404FF0E04191FAA1F1B1FAE0
:1030500081F120FA01F747F6C07191FAA1F1B1FAB6
:1030600081F1606988404FF4403191FAA1F1B1FAE1
:1030700081F105FA01F108434FF0706292FAA2F271
:10308000B2FA82F2A169914008434FF0E04191FA0F
:10309000A1F1B1FA81F107FA01F10843084901E011
:1030A0000DE0BBE008390860081D006820F4F85105
:1030B000A06A401E41EA00200149091F086001E0A2
:1030C00090380240206800F40010B0F5001F40D195
:1030D000E06FB0F1006F3CD15148006800F07060C3
:1030E0004FF0706191FAA1F1B1FA81F120FA01F586
:1030F0004B48006800F0E0404FF0E04191FAA1F148
:10310000B1FA81F120FA01F747F6C07191FAA1F105
:10311000B1FA81F1606988404FF4403292FAA2F22C
:10312000B2FA82F2216A914008434FF0706191FA3D
:10313000A1F1B1FA81F105FA01F108434FF0E04144
:1031400091FAA1F1B1FA81F107FA01F1084334498A
:103150000860207800F00800082845D13048006851
:1031600000F070604FF0706191FAA1F1B1FA81F155
:1031700020FA01F52A48006800F440304FF440314D
:1031800091FAA1F1B1FA81F120FA01F747F6C07185
:1031900091FAA1F1B1FA81F1606988404FF44031B0
:1031A00091FAA1F1B1FA81F107FA01F108434FF068
:1031B000706191FAA1F1B1FA81F105FA01F10843C8
:1031C0004FF0E04292FAA2F2B2FA82F2E169914043
:1031D000084313490860081D006820F44030E16A84
:1031E00008430F49091D08600D488838006840F001
:1031F00080500B4988390860FFF774F8064606E0EE
:10320000FFF770F8801B642801D903209FE504486C
:1032100088380068C0F340700028F1D0002096E59F
:103220008838024070B504460D460026664800689E
:1032300000F00F00A8420ED26348006820F00F0093
:103240002843614908600846006800F00F00A84262
:1032500001D0012070BD207800F00200022807D1C3
:103260005A48006820F0F000A168084357490860F8
:10327000207800F00100002860D06068012807D1A4
:10328000524808380068C0F34040A0B90120E1E787
:103290006068022807D14D4808380068C0F34060D4
:1032A00048B90120D6E7494808380068C0F3400013
:1032B00008B90120CEE74548006820F003006168A6
:1032C000084342490860FFF70DF806466068012888
:1032D00010D108E0FFF706F8801B41F288318842E0
:1032E00001D90320B6E73948006800F00C00042833
:1032F000F0D123E06068022810D108E0FEF7F2FF69
:10330000801B41F28831884201D90320A2E72F486F
:10331000006800F00C000828F0D10FE008E0FEF78C
:10332000E1FF801B41F28831884201D9032091E7F7
:103330002648006800F00C000028F0D12248006800
:1033400000F00F00A8420ED91F48006820F00F00BF
:1033500028431D4908600846006800F00F00A84295
:1033600001D0012076E7207800F00400042807D17E
:103370001648006820F4E050E168084313490860EB
:10338000207800F00800082808D11048006820F4D0
:103390006040216940EAC1000C49086000F04EF825
:1033A0000A49096801F0F001F02292FAA2F2B2FA99
:1033B00082F2D140064A515CC840064908600F209D
:1033C000FEF7B2FF002045E7003C0240083802400B
:1033D000AC9A030800000220014800687047000012
:1033E0000000022000B5FFF7F7FF0749096801F464
:1033F000E0514FF4E05292FAA2F2B2FA82F2D140D6
:10340000024A515CC84000BD08380240BC9A03081B
:1034100000B5FFF7E1FF0749096801F460414FF487
:10342000604292FAA2F2B2FA82F2D140024A515CB0
:10343000C84000BD08380240BC9A030870B500219E
:10344000002200230020274C246804F00C0424B13F
:10345000042C04D0082C41D103E0234840E0234849
:103460003EE0204C241F246804F03F011D4C241F23
:10347000246804F4800484B11C4CB4FBF1F5194CAD
:10348000241F246847F6C076344096FAA6F6B6FAAA
:1034900086F6F44005FB04F20FE0134CB4FBF1F5A3
:1034A000104C241F246847F6C076344096FAA6F6DE
:1034B000B6FA86F6F44005FB04F20A4C241F246891
:1034C00004F440344FF4403595FAA5F5B5FA85F586
:1034D000EC40641C6300B2FBF3F001E0024800BF63
:1034E00000BF70BD083802400024F40040787D0120
:1034F00038B504460025207800F00100002871D07E
:10350000FE48006800F00C0004280DD0FB4800685D
:1035100000F00C00082813D1F848001F006800F4E0
:103520008000B0F5800F0BD1F44808380068C0F374
:103530004040002869D06068002866D1012038BD6D
:1035400000BF6068B0F5803F08D1EC4808380068DB
:1035500040F48030E949083908602EE0606868B9B5
:10356000E6480838006820F48030E44908390860EB
:103570000846006820F4802008601EE06068B0F50E
:10358000A02F0DD1DD480838006840F48020DB49C9
:10359000083908600846006840F4803008600CE094
:1035A000D6480838006820F48030D44908390860CB
:1035B0000846006820F48020086000BF606890B171
:1035C000FEF790FE054606E0FEF78CFE401B6428E1
:1035D00001D90320B3E7C94808380068C0F3404068
:1035E0000028F1D011E0FEF77DFE054606E0FEF76B
:1035F00079FE401B642801D90320A0E7BF480838A2
:103600000068C0F340400028F1D1207800F00200AB
:10361000022873D1B948006800F00C0058B1B748CF
:10362000006800F00C00082821D1B448001F006891
:1036300000F48000D8B9B14808380068C0F34000F1
:1036400020B1E068012801D0012078E7AB480838B4
:10365000006820F0F800F82292FAA2F2B2FA82F2A0
:10366000216991400843A5490839086046E0E068AF
:1036700050B3A2480838006840F001009F4908395B
:103680000860FEF72FFE054606E0FEF72BFE401B06
:10369000022801D9032052E7984808380068C0F38F
:1036A00040000028F1D095480838006820F0F80064
:1036B000F82292FAA2F2B2FA82F22169914008430A
:1036C0008E490839086019E08C480838006820F0F5
:1036D00001008A4908390860FEF704FE054606E045
:1036E000FEF700FE401B022801D9032027E783488C
:1036F00008380068C0F340000028F1D1207800F0BD
:103700000800082836D16069D0B17C486C30006868
:1037100040F0010079496C310860FEF7E3FD054691
:1037200006E0FEF7DFFD401B022801D9032006E773
:1037300072486C300068C0F340000028F1D019E0F6
:103740006E486C30006820F001006C496C310860F4
:10375000FEF7C8FD054606E0FEF7C4FD401B022843
:1037600001D90320EBE665486C300068C0F34000E7
:103770000028F1D1207800F00400042871D100BFA6
:103780005E483830006840F080505C49383108604D
:103790000846006800F08050009000BF00BF584805
:1037A000006840F4807056490860FEF79BFD0546AE
:1037B00006E0FEF797FD401B642801D90320BEE612
:1037C0004F48006800F480700028F2D000BFA06865
:1037D000012808D149486830006840F00100474995
:1037E000683108602DE0A06868B944486830006816
:1037F00020F001004149683108600846006820F067
:10380000040008601DE0A06805280DD13B48683021
:10381000006840F0040039496831086008460068D3
:1038200040F0010008600CE034486830006820F087
:1038300001003249683108600846006820F0040041
:10384000086000BFA068A8B1FEF74CFD054609E07E
:10385000FEF748FD401B41F28831884202D903201F
:103860006DE61BE0254868300068C0F34000002882
:10387000EED013E0FEF736FD054608E0FEF732FD18
:10388000401B41F28831884201D9032057E61B488A
:1038900068300068C0F340000028EFD1A06988B309
:1038A0001648006800F00C00082873D0A0690228B0
:1038B00064D112480838006820F080700F49083938
:1038C0000860FEF70FFD054606E0FEF70BFD401B06
:1038D000022801D9032032E6084808380068C0F3FE
:1038E00040600028F1D1D4E90701084347F6C072CF
:1038F00092FAA2F2B2FA82F2616A04E00838024057
:103900000070004058E0914008430122A16AC2EBD8
:1039100051014FF4403292FAA2F2B2FA82F291408F
:1039200008434FF0706292FAA2F2B2FA82F2E16AB0
:10393000914008434FF0E04292FAA2F2B2FA82F2CA
:10394000216B914008431D490860081F006840F042
:103950008070091F0860FEF7C5FC054606E0FEF70B
:10396000C1FC401B022801D90320E8E51348001FD1
:103970000068C0F340600028F1D01DE00F48001F30
:10398000006820F080700D49091F0860FEF7AAFC4E
:10399000054607E00EE0FEF7A5FC401B022801D912
:1039A0000320CCE50548001F0068C0F340600028F4
:1039B000F1D101E00120C2E50020C0E50438024059
:1039C00070B504460D460CB9012070BD94F82C006A
:1039D00028B9002084F82D00204600F011F80220BC
:1039E00084F82C00211D2068FDF773FA2946D4E9DC
:1039F0000002FDF7D9FA012084F82C000020E4E74A
:103A000010B586B0044600BF3E48006840F0010093
:103A10003C4908600846006800F00100009000BFC3
:103A200000BF00BF37480838006840F0040035493F
:103A3000083908600846006800F00400009000BFE4
:103A400000BF00BF0846006840F008000860084654
:103A5000006800F00800009000BF00BF00BF0846EB
:103A6000006840F0100008600846006800F0100090
:103A7000009000BF00BF00BF0846006840F0200073
:103A800008600846006800F02000009000BF00BFFA
:103A900000BF0846006840F0400008600846006823
:103AA00000F04000009000BF00BF0D2001900220F8
:103AB000029001200390032004900C20059001A99E
:103AC0001148FEF7F5FA4CF20370019001A90F4876
:103AD000FEF7EEFA4FF68370019001A90C48FEF74D
:103AE000E7FA4FF63F00019001A90A48FEF7E0FA15
:103AF00048F23710019001A90748FEF7D9FA06B03D
:103B000010BD00003838024000080240000C02409E
:103B100000100240001402400018024070B5044634
:103B20000D4694F82C00022800D170BD022084F8C4
:103B30002C0029462068FDF706FA012084F82C00A5
:103B40000020F2E770B504460D46164694F82C00A6
:103B5000022800D170BD022084F82C00324629468C
:103B60002068FDF7F7F92868022803D1052084F8BA
:103B70002C0002E0012084F82C000020EAE770B558
:103B800004460E4615460CB9012070BD94F8450058
:103B900028B9002084F84400204600F01DF804F104
:103BA00008012068FDF726F93146A2682068FDF774
:103BB00061F92946E36AD4E90102FDF7F7F8A16843
:103BC000206850F8210040F00100A268216841F807
:103BD00022000020D9E7000010B586B0044600BFDF
:103BE0002048006840F001001E490860084600684F
:103BF00000F00100009000BF00BF00BF1948083866
:103C0000006840F008001749083908600846006855
:103C100000F00800009000BF00BF00BF0846006829
:103C200040F0100008600846006800F010000090A6
:103C300000BF00BF4EF2B37001900220029001203D
:103C40000390032004900C20059001A90648FEF77C
:103C50002FFA4FF68070019001A90448FEF728FA68
:103C600006B010BD38380240000C0240001002407F
:103C7000042808D14FF0E021096941F004014FF018
:103C8000E022116107E04FF0E021096921F0040111
:103C90004FF0E0221161704770B504462546681E5A
:103CA000B0F1807F01D301200FE0681E4FF0E021CA
:103CB00048610F214FF0FF3004F000FE00204FF06C
:103CC000E021886107200861002070BD70477047BF
:103CD00010B504460CB9012010BD94F8390010B994
:103CE000204600F00DF8022084F83900211D2068DC
:103CF00005F03AF9012084F839000020ECE70000D3
:103D000038B504460D492068884215D100BF0C48DB
:103D1000006840F002000A4908600846006800F0A8
:103D20000200009000BF00BF032201211D20FEF70A
:103D30001FFD1D20FEF70FFD38BD000000040040F0
:103D40004038024001460868C06840F001000A6837
:103D5000D0600868006840F001000A681060002028
:103D60007047704710B5044620680069C0F34000F2
:103D7000D8B12068C068C0F34000B0B16FF0020055
:103D800021680861012020762068806900F0030026
:103D900018B12046FFF7E5FF05E0204600F0BEF829
:103DA000204600F0BCF80020207620680069C0F3AF
:103DB0008000D8B12068C068C0F38000B0B16FF057
:103DC000040021680861022020762068806900F4E0
:103DD000407018B12046FFF7C4FF05E0204600F010
:103DE0009DF8204600F09BF80020207620680069AE
:103DF000C0F3C000D8B12068C068C0F3C000B0B143
:103E00006FF0080021680861042020762068C069EE
:103E100000F0030018B12046FFF7A3FF05E020469D
:103E200000F07CF8204600F07AF800202076206828
:103E30000069C0F30010D8B12068C068C0F300105A
:103E4000B0B16FF01000216808610820207620686A
:103E5000C06900F4407018B12046FFF782FF05E00A
:103E6000204600F05BF8204600F059F8002020764C
:103E70002068006900F0010058B12068C06800F0B7
:103E8000010030B16FF0010021680861204600F0A8
:103E900047F820680069C0F3C01058B12068C068B6
:103EA000C0F3C01030B16FF0800021680861204677
:103EB000FFF70CFF20680069C0F3002058B12068AC
:103EC000C068C0F3C01030B16FF080002168086195
:103ED0002046FFF7FBFE20680069C0F3801058B150
:103EE0002068C068C0F3801030B16FF040002168D6
:103EF0000861204600F020F820680069C0F34010F7
:103F000058B12068C068C0F3401030B16FF0200095
:103F1000216808612046FFF7DAFE10BD7047704740
:103F200010B504460348844202D101202EF06AFAFB
:103F300010BD000074050220704770472DE9F04164
:103F400004462068C569206806682068876805F00F
:103F50000F08B8F1000F0AD105F0200038B106F0C3
:103F6000200020B1204606F0FEF8BDE8F081B8F14F
:103F7000000F79D040F201103840002874D005F0CD
:103F8000010048B106F4807030B101202168086258
:103F9000E06E40F00100E06605F0020048B107F075
:103FA000010030B1022021680862E06E40F0040098
:103FB000E06605F0040048B107F0010030B10420CC
:103FC00021680862E06E40F00200E06605F008003B
:103FD00060B106F0200010B907F0010030B10820F0
:103FE00021680862E06E40F00800E066E06E58B3B9
:103FF00005F0200028B106F0200010B1204606F0A0
:10400000B2F8E06E00F0080020B92068806800F087
:10401000400018B3204606F086F82068806800F05B
:104020004000B8B12068806820F0400021688860B6
:10403000606E50B11748616E0865606EFEF724F837
:1040400010B1606E016D88470DE02046FFF775FFE7
:1040500009E009E02046FFF770FF04E02046FFF783
:104060006CFF0020E06680E705F0800030B106F0CC
:10407000800018B1204606F081FA76E705F040008E
:1040800030B106F0400018B1204606F05CF86CE74D
:1040900000BF6AE70FA1000810B504460CB9012063
:1040A00010BDA06900B100E000BF94F8690028B914
:1040B000002084F86800204600F02AF8242084F8C4
:1040C00069002068006820F001002168086020462F
:1040D00006F08EF8012800D1E2E7606A10B12046B0
:1040E00005F066FF2068406820F490402168486031
:1040F0002068806820F02A002168886020680068B5
:1041000040F0010021680860204605F0C6FFC7E7BF
:1041100010B586B0044623492068884240D100BFCC
:104120002148006840F001001F4908600846006807
:1041300000F00100009000BF00BF00BF1A4814301B
:10414000006840F010001849143108600846006803
:1041500000F01000009000BF00BF48150190022041
:10416000029001200390022004900720059001A9ED
:104170000E48FDF79DFF4FF48060019001A90B48A8
:10418000FDF796FF2068006840F020002168086075
:104190002520FEF7E0FA032211462520FEF7E8FA73
:1041A00006B010BD0010014030380240000002404F
:1041B0002DE9F84F04460D46164699464FF0000A81
:1041C00094F86A0020287AD105B116B90120BDE81B
:1041D000F88F00BF94F86800012801D10220F6E7AB
:1041E000012084F8680000BF00205834606122205C
:1041F000A074FEF777F8824626806680583C00BFA0
:10420000A068B0F5805F0AD1206920B940F2FF10A4
:10421000A4F85C001CE0FF20A4F85C0018E0A06893
:1042200048B9206918B9FF20A4F85C0010E07F208D
:10423000A4F85C000CE0A068B0F1805F08D12069B0
:1042400018B97F20A4F85C0002E03F20A4F85C00CD
:1042500000BFB4F85C8024E0B4F85A00401EA4F813
:104260005A005346002220212046CDF8009006F047
:10427000BAF908B10320AAE7A068B0F5805F09D1B8
:10428000206938B92F462068406A00EA0800388063
:10429000AD1C06E02068406A08F0FF01084005F800
:1042A000010BB4F85A000028D6D1202084F86A0007
:1042B00000BF002084F8680000BF88E7FFE7022005
:1042C00085E77047704700BFFEE7000010B5002289
:1042D00010211248FEF700F81048006820F44060F2
:1042E0000E4908600846006840F4806008600022BB
:1042F00020210A48FDF7F0FF02200AF0F9FF012211
:1043000010210648FDF7E8FF02200AF0F1FF002225
:1043100010210248FDF7E0FF10BD0000001C024024
:1043200000B587B000BF1248006840F08000104917
:1043300008600846006800F08000019000BF00BFE0
:10434000302002900120039004900220059002A9E1
:104350000848FDF7ADFE012220210648FDF7BCFF0D
:10436000012210210348FDF7B7FF07B000BD000090
:1043700030380240001C024010B5002210211248C3
:10438000FDF7AAFF1048006820F440600E4908605D
:104390000846006840F480600860012220210A4835
:1043A000FDF79AFF02200AF0A3FF01221021064820
:1043B000FDF792FF02200AF09BFF00221021024825
:1043C000FDF78AFF10BD0000001C024070B50546D5
:1043D00000241848006820F4406016490860084628
:1043E0000068086000261AE0002210211148FDF73D
:1043F00073FF02200AF07CFF012210210D48FDF717
:104400006BFF6006040E20210A48FDF75DFF08B12E
:10441000601CC4B201200AF06BFF701CC6B2082EEB
:10442000E2DB15B9FFF7A8FF01E0FFF74FFF2046D9
:1044300070BD0000001C024070B504461C480068B6
:1044400020F440601A4908600846006840F4806023
:104450000860002210211648FDF73EFF002523E0EA
:10446000E00928B1012220211148FDF735FF04E0C1
:10447000002220210E48FDF72FFF6006040E0220C7
:104480000AF036FF012210210948FDF725FF02201E
:104490000AF02EFF002210210548FDF71DFF022023
:1044A0000AF026FF681CC5B2082DD9DB70BD0000DC
:1044B000001C024010B51348006820F44060114908
:1044C00008600846006840F48060086001222021EE
:1044D0000C48FDF701FF012210210A48FDF7FCFE00
:1044E00004200AF005FF002220210648FDF7F4FE13
:1044F00004200AF0FDFE002210210248FDF7ECFE28
:1045000010BD0000001C024010B51348006820F4E4
:104510004060114908600846006840F48060086007
:10452000002210210C48FDF7D7FE002220210A4866
:10453000FDF7D2FE04200AF0DBFE0122102106481E
:10454000FDF7CAFE04200AF0D3FE01222021024812
:10455000FDF7C2FE10BD0000001C024010B5002493
:104560001748006820F44060154908600846006854
:104570000860012220211248FDF7AEFE01200AF05A
:10458000B7FE012210210E48FDF7A6FE01200AF019
:10459000AFFE07E0601CC4B2FA2C03DDFFF7B4FFE6
:1045A000012010BD20210648FDF78EFE0028F1D124
:1045B000002210210248FDF78FFE0020F1E70000E5
:1045C000001C024000B587B000BF2448006840F0DE
:1045D0000100224908600846006800F001000190CF
:1045E00000BF00BF00BF0846006840F0040008603C
:1045F0000846006800F00400019000BF00BF00BF43
:104600000846006840F0800008600846006800F036
:104610008000019000BF00BF0120029000200390A5
:10462000022004900320059002A90D48FDF740FDEB
:104630004FF40050029000200390012004900320CA
:10464000059002A90748FDF733FD0C20029002A94E
:104650000548FDF72DFD07B000BD000030380240D1
:104660000000024000080240001C024070B50446F1
:1046700000260D4805880D48006818B1204603F053
:1046800045FC0FE00848408845430021084603F0F8
:104690003BFA03F0FDFB002602E005490C80761C86
:1046A000AE42FAD370BD000044040220540502203B
:1046B000000008602DE9FF4F81B080460D4691460D
:1046C000DDF838A01848006840B1CDF800A04A468F
:1046D00029464046049B03F03FFC21E0A9EB08007B
:1046E000401C86B20498401B401C1FFA80FB00242B
:1046F00014E0281981B2404603F006FA03F0C8FB23
:10470000002707E004FB06703AF81000074908800C
:10471000781C87B2B742F5DB601C84B25C45E8DBED
:1047200005B0BDE8F08F00005405022000000860CD
:1047300010B50446604884716048006850B1204656
:1047400003F0B2FC5D48C08A5B4908805B48008B7F
:10475000488010BD002C58D1F020574908804FF4F4
:10476000A07048800846808845F21051884210D1D8
:104770004FF43050504908814FF4285048814FF48D
:104780002C5088814FF4F07008804FF448704880B6
:104790001AE04948808841F6631188420DD12C20E7
:1047A000454908812B2048812A2088814FF4F070E8
:1047B00008804FF44870488006E02C203E4908816C
:1047C0002A2048812B2088813B48808845F210317F
:1047D000884205D03848808847F29671884206D1D1
:1047E0004FF4A070344908804FF4F070488032488C
:1047F000808849F60601884258D14FF4F0702E495E
:1048000008804FF44870488050E04FF4A0702A4967
:104810000880F02048800846808845F21051884280
:1048200010D14FF43050244908814FF4285048816A
:104830004FF42C5088814FF4487008804FF4F0708A
:10484000488020E01C48808841F66311884205D0EA
:104850001948808849F6060188420DD12C20164956
:1048600008812A2048812B2088814FF448700880D5
:104870004FF4F070488006E02C200F4908812A2070
:1048800048812B2088810C48808845F2103188426D
:1048900005D00948808847F29671884206D14FF4C6
:1048A000F070054908804FF4A0704880002003F0A4
:1048B0000DF800BF4DE7000044040220540502201B
:1048C0002DE9FF4F85B081468A4600200490039071
:1048D0000798A0EB09050898A0EB0A06CDF8089008
:1048E000CDF804A0002D01DD012705E00DB900275A
:1048F00002E04FF0FF376D42002E02DD4FF001085D
:1049000006E016B94FF0000802E04FF0FF3876429B
:10491000B54201DD2C4600E034464FF0000B21E0AB
:10492000019A91B2029A90B200F022F804982844B9
:1049300004900398304403900498A04205DD049845
:10494000001B04900298384402900398A04205DDB1
:104950000398001B03900198404401900BF1010063
:104960001FFA80FB601C8345DADD09B0BDE8F08FDB
:1049700070B504460D460A48006830B1094829461A
:104980000268204603F0A6FB09E02946204603F012
:10499000BBF803F07DFA034800880349088070BD26
:1049A0005405022014000220000008602DE9F047A1
:1049B00006460F469046002445460320A0EB4809D2
:1049C0003CE07A1B91B2321990B2FFF7D1FF3A1B4B
:1049D00091B2721990B2FFF7CBFF3A1991B27219E6
:1049E00090B2FFF7C5FF7A1991B2321990B2FFF772
:1049F000BFFF7A1991B2321B90B2FFF7B9FF3A1993
:104A000091B2721B90B2FFF7B3FF7A1B91B2321BC7
:104A100090B2FFF7ADFF3A1B91B2721B90B2FFF755
:104A2000A7FF641CB9F1000F03DAA000801D8144C8
:104A300004E0601B80000A3081446D1EAC42C0DD82
:104A4000BDE8F08770B504460D4616463D4800683F
:104A500028B132462946204603F03CFB70BD3A4857
:104A6000808845F21051884220D13749488903F0A7
:104A700003FA201203F0F4F933494989491C88B23A
:104A800003F0FAF9E0B203F0EBF92F49888903F05B
:104A9000F3F9281203F0E4F92B498989491C88B2FB
:104AA00003F0EAF9E8B203F0DBF942E02648808837
:104AB00041F66311884228D12348807920B92248E1
:104AC0000088401E001B84B21F49488903F0D4F9B6
:104AD000201203F0C5F9E0B203F0C2F9201203F08E
:104AE000BFF9E0B203F0BCF91749888903F0C4F9B3
:104AF000281203F0B5F9E8B203F0B2F9281203F076
:104B0000AFF9E8B203F0ACF913E00F49488903F0BC
:104B1000B3F9201203F0A4F9E0B203F0A1F90A49B5
:104B2000888903F0A9F9281203F09AF9E8B203F092
:104B300097F90548008905490880891C0E8000BF47
:104B40008CE700005405022044040220FEFF0760A9
:104B500000B595B003F034FDFB4988800846808895
:104B600018B103F083FB02F0D5BD00BFF748006821
:104B700040F00200F54908600846006800F00200B5
:104B8000019000BF00BF20201090012011901290D2
:104B90000320139010A9EE48FDF78AFA02F016FEE2
:104BA0004FF02040EB490860EB48486000208860E7
:104BB0000021E848C16001611021416109024162A0
:104BC0008900C1620F20099000200A9050200B90AC
:104BD00000200F900F200290002003900F200490DF
:104BE0000020089002AA09A9DA48FEF7C8FF32207F
:104BF0000AF072FBD32003F03FF902F035FED249F0
:104C0000888002F031FED049888002F02DFECE4926
:104C10008880084680884FF6FF7101EA0020CA4963
:104C2000888002F021FEC84989880843C6498880E7
:104C30000846808849F2413188427CD0042003F044
:104C40001BF902F011FEC049888002F00DFEBE493A
:104C5000888002F009FEBC498880084680884FF6AB
:104C6000FF7101EA0020B849888002F0FDFDB649D5
:104C700089880843B44988800846808848F25251A0
:104C8000884203D147F28970AF498880AE48808856
:104C900047F289718842D0D0D42003F0EDF802F0B9
:104CA000E3FDA949888002F0DFFDA749888002F072
:104CB000DBFDA5498880084680884FF6FF7101EA30
:104CC0000020A149888002F0CFFD9F4989880843D0
:104CD0009D4988800846808845F210318842ACD0D2
:104CE000D32003F0C9F802F0BFFD9749888002F095
:104CF000BBFD9549888002F0B7FD9349888008463E
:104D000080884FF6FF7101EA00208F49888002F009
:104D1000ABFD8D49898808438B4988800846808887
:104D200047F29671884288D055214FF4704003F0C5
:104D3000B9F8AA2100E07EE04FF2010003F0B2F8DA
:104D400052214FF2020003F0ADF808214FF20300A8
:104D500003F0A8F801214FF2040003F0A3F84FF488
:104D6000454003F089F802F07FFD774988800846C6
:104D700080884FF6FF7101EA0020734988804CF269
:104D8000015003F079F802F06FFD6F4989880843FC
:104D90006D49888005200AF09FFA6B48808845F2AB
:104DA0001051884247D0D32003F066F802F05CFD32
:104DB0006549888002F058FD6349888002F054FDFF
:104DC00061498880084680884FF6FF7101EA00201B
:104DD0005D49888002F048FD5B49898808435A494B
:104DE00088800846808849F60601884223D0A120A1
:104DF00003F042F802F038FD5349888002F034FD98
:104E000051498880084680884FF6FF7101EA0020EA
:104E10004D49888002F028FD4B49898808434A495A
:104E200088800846808845F26171884203D141F646
:104E30006310454988804448818848A0FBF7EEFA12
:104E40004148808849F2413188427CD1CF2003F02B
:104E500013F8002003F004F8C12003F001F830201B
:104E600002F0FEFFED2003F007F8642002F0F8FFE7
:104E7000032002F0F5FF122002F0F2FF812002F081
:104E8000EFFFE82002F0F8FF852002F0E9FF102094
:104E900002F0E6FF7A2002F0E3FFCB2002F0ECFF05
:104EA000392002F0DDFF2C2002F0DAFF002002F0B2
:104EB000D7FF342002F0D4FF022002F0D1FFF72008
:104EC00002F0DAFF202002F0CBFFEA2002F0D4FF4C
:104ED000002002F0C5FF002002F0C2FFC02002F057
:104EE000CBFF1B2002F0BCFFC12002F0C5FF012058
:104EF00002F0B6FFC52002F0BFFF302002F0B0FF85
:104F0000302002F0ADFFC72002F0B6FFB72002F05C
:104F1000A7FF362002F0B0FF482002F0A1FF3A20A0
:104F200002F0AAFF552002F09BFFB12002F0A4FF7F
:104F3000002002F095FF1A2002F092FFB62002F046
:104F40009BFF0A2012E0AAE044040220303802400D
:104F500000040240F8030220040100A0204C434456
:104F60002049443A25780D0A0000000002F078FF3D
:104F7000A22002F075FFF22002F07EFF002002F076
:104F80006FFF262002F078FF012002F069FFE02089
:104F900002F072FF0F2002F063FF2A2002F060FF90
:104FA000282002F05DFF082002F05AFF0E2002F0D8
:104FB00057FF082002F054FF542002F051FFA920AF
:104FC00002F04EFF432002F04BFF0A2002F048FFA0
:104FD0000F2002F045FF002002F042FF002002F007
:104FE0003FFF002002F03CFF002002F039FFE120EB
:104FF00002F042FF002002F033FF152002F030FFE4
:10500000172002F02DFF072002F02AFF112002F0E6
:1050100027FF062002F024FF2B2002F021FF56205C
:1050200002F01EFF3C2002F01BFF052002F018FFDB
:10503000102002F015FF0F2002F012FF3F2002F0B7
:105040000FFF3F2002F00CFF0F2002F009FF2B2082
:1050500002F012FF002002F003FF002002F000FF28
:10506000012002F0FDFE3F2002F0FAFE2A2002F0AD
:1050700003FF002002F0F4FE002002F0F1FE002009
:1050800002F0EEFEEF2002F0EBFE112002F0F4FE43
:1050900078200AF021F9292002F0EEFE63E5FE48AF
:1050A000808847F2897188427ED1112002F0E4FEA7
:1050B00078200AF011F9362002F0DEFE002002F01E
:1050C000CFFE3A2002F0D8FE052002F0C9FEB22041
:1050D00002F0D2FE0C2002F0C3FE0C2002F0C0FE53
:1050E000002002F0BDFE332002F0BAFE332002F0B1
:1050F000B7FEB72002F0C0FE352002F0B1FEBB20A3
:1051000002F0BAFE322002F0ABFEC02002F0B4FE84
:105110000C2002F0A5FEC22002F0AEFE012002F03B
:105120009FFEC32002F0A8FE102002F099FEC420CA
:1051300002F0A2FE202002F093FEC62002F09CFEA8
:105140000F2002F08DFED02002F096FEA42002F087
:1051500087FEA12002F084FEE02002F08DFED02028
:1051600002F07EFE002002F07BFE022002F078FEBC
:10517000072002F075FE0A2002F072FE282002F0DD
:105180006FFE322002F06CFE442002F069FE4220E5
:1051900002F066FE062002F063FE0E2002F060FEC2
:1051A000122002F05DFE00E054E0142002F058FEF0
:1051B000172002F055FEE12002F05EFED02002F042
:1051C0004FFE002002F04CFE022002F049FE0720B4
:1051D00002F046FE0A2002F043FE282002F040FEC4
:1051E000312002F03DFE542002F03AFE472002F04A
:1051F00037FE0E2002F034FE1C2002F031FE172094
:1052000002F02EFE1B2002F02BFE1E2002F028FED4
:105210002A2002F031FE002002F022FE002002F0DF
:105220001FFE002002F01CFEEF2002F019FE2B20D2
:1052300002F022FE002002F013FE002002F010FE19
:10524000012002F00DFE3F2002F00AFE292002F0AC
:1052500013FE88E49048808845F21031884240F07F
:105260007C87ED2002F008FE012002F0F9FDFE200F
:1052700002F0F6FDEE2002F0FFFDDE2002F0F0FD70
:10528000212002F0EDFDF12002F0F6FD012002F0F8
:10529000E7FDDF2002F0F0FD102002F0E1FDC42068
:1052A00002F0EAFD8F2002F0DBFDC62002F0E4FDF3
:1052B000002002F0D5FDE22002F0D2FDE22002F053
:1052C000CFFDE22002F0CCFDBF2002F0D5FDAA20E8
:1052D00002F0C6FDB02002F0CFFD0D2002F0C0FDAF
:1052E000002002F0BDFD0D2002F0BAFD002002F00A
:1052F000B7FD112002F0B4FD002002F0B1FD19202D
:1053000002F0AEFD002002F0ABFD212002F0A8FD6E
:10531000002002F0A5FD2D2002F0A2FD002002F0E9
:105320009FFD3D2002F09CFD002002F099FD5D20D4
:1053300002F096FD002002F093FD5D2002F090FD4A
:10534000002002F08DFDB12002F096FD802002F0D9
:1053500087FD002002F084FD8B2002F081FD0020FB
:1053600002F07EFD962002F07BFD002002F078FD29
:10537000B22002F081FD002002F072FD002002F058
:105380006FFD022002F06CFD002002F069FD032099
:1053900002F066FD002002F063FDB32002F06CFD18
:1053A000002002F05DFD002002F05AFD002002F016
:1053B00057FD002002F054FD002002F051FD0020B6
:1053C00002F04EFD002002F04BFD002002F048FDEF
:1053D000002002F045FD002002F042FD002002F016
:1053E0003FFD002002F03CFD002002F039FD0020CE
:1053F00002F036FD002002F033FD002002F030FD07
:10540000002002F02DFD002002F02AFD002002F015
:1054100027FD002002F024FD002002F021FD0020E5
:1054200002F01EFD002002F01BFD002002F018FD1E
:10543000B42002F021FD8B2002F012FD002002F0CA
:105440000FFD962002F00CFD002002F009FDA120C6
:1054500002F006FD002002F003FDB52002F00CFD75
:10546000022002F0FDFC002002F0FAFC032002F012
:10547000F7FC002002F0F4FC042002F0F1FC002014
:1054800002F0EEFCB62002F0F7FC002002F0E8FC8F
:10549000002002F0E5FC01E044040220B72002F005
:1054A000EBFC002002F0DCFC002002F0D9FC3F20E5
:1054B00002F0D6FC002002F0D3FC5E2002F0D0FC0B
:1054C000002002F0CDFC642002F0CAFC002002F0B3
:1054D000C7FC8C2002F0C4FC002002F0C1FCAC2010
:1054E00002F0BEFC002002F0BBFCDC2002F0B8FCA5
:1054F000002002F0B5FC702002F0B2FC002002F0A7
:10550000AFFC902002F0ACFC002002F0A9FCEB20E4
:1055100002F0A6FC002002F0A3FCDC2002F0A0FCBC
:10552000002002F09DFCB82002F0A6FC002002F052
:1055300097FC002002F094FC002002F091FC002077
:1055400002F08EFC002002F08BFC002002F088FCB0
:10555000002002F085FC002002F082FCBA2002F05C
:105560008BFC242002F07CFC002002F079FC00205F
:1055700002F076FC002002F073FCC12002F07CFCFB
:10558000202002F06DFC002002F06AFC542002F0A2
:1055900067FC002002F064FCFF2002F061FC0020A8
:1055A00002F05EFCC22002F067FC0A2002F058FC08
:1055B000002002F055FC042002F052FC002002F012
:1055C0004FFCC32002F058FC3C2002F049FC0020B4
:1055D00002F046FC3A2002F043FC002002F040FCBE
:1055E000392002F03DFC002002F03AFC372002F0A6
:1055F00037FC002002F034FC3C2002F031FC00209B
:1056000002F02EFC362002F02BFC002002F028FCD9
:10561000322002F025FC002002F022FC2F2002F0B4
:105620001FFC002002F01CFC2C2002F019FC0020C2
:1056300002F016FC292002F013FC002002F010FCFE
:10564000262002F00DFC002002F00AFC242002F0CB
:1056500007FC002002F004FC242002F001FC0020E2
:1056600002F0FEFB232002F0FBFB002002F0F8FB1F
:105670003C2002F0F5FB002002F0F2FB362002F0A5
:10568000EFFB002002F0ECFB322002F0E9FB0020EF
:1056900002F0E6FB2F2002F0E3FB002002F0E0FB2B
:1056A0002C2002F0DDFB002002F0DAFB292002F0C2
:1056B000D7FB002002F0D4FB262002F0D1FB002013
:1056C00002F0CEFB242002F0CBFB002002F0C8FB4E
:1056D000242002F0C5FB002002F0C2FB232002F0D0
:1056E000BFFB002002F0BCFBC42002F0C5FB62201F
:1056F00002F0B6FB002002F0B3FB052002F0B0FB85
:10570000002002F0ADFB842002F0AAFB002002F092
:10571000A7FBF02002F0A4FB002002F0A1FB182060
:1057200002F09EFB002002F09BFBA42002F098FBFD
:10573000002002F095FB182002F092FB002002F0FE
:105740008FFB502002F08CFB002002F089FB0C2024
:1057500002F086FB002002F083FB172002F080FBA2
:10576000002002F07DFB952002F07AFB002002F081
:1057700077FBF32002F074FB002002F071FBE620BF
:1057800002F06EFB002002F06BFBC52002F074FB00
:10579000322002F065FB002002F062FB442002F0A0
:1057A0005FFB002002F05CFB652002F059FB00204B
:1057B00002F056FB762002F053FB002002F050FB73
:1057C000882002F04DFB002002F04AFBC62002F0C8
:1057D00053FB202002F044FB002002F041FB172085
:1057E00002F03EFB002002F03BFB012002F038FB00
:1057F000002002F035FBC72002F03EFB002002F043
:105800002FFB002002F02CFB002002F029FB0020DF
:1058100002F026FBC82002F02FFB002002F020FB44
:10582000002002F01DFB002002F01AFB002002F015
:1058300017FBC92002F020FB002002F011FB002022
:1058400002F00EFB002002F00BFB002002F008FB30
:10585000002002F005FB002002F002FB002002F015
:10586000FFFA002002F0FCFA002002F0F9FA002012
:1058700002F0F6FA002002F0F3FA002002F0F0FA4B
:10588000002002F0EDFA002002F0EAFA002002F017
:10589000E7FA002002F0E4FAE02002F0EDFA162028
:1058A00002F0DEFA002002F0DBFA1C2002F0D8FA47
:1058B000002002F0D5FA212002F0D2FA002002F0F6
:1058C000CFFA362002F0CCFA002002F0C9FA4620C6
:1058D00002F0C6FA002002F0C3FA522002F0C0FA29
:1058E000002002F0BDFA642002F0BAFA002002F0B3
:1058F000B7FA7A2002F0B4FA002002F0B1FA8B2055
:1059000002F0AEFA002002F0ABFA992002F0A8FAF9
:10591000002002F0A5FAA82002F0A2FA002002F06E
:105920009FFAB92002F09CFA002002F099FAC420F4
:1059300002F096FA002002F093FACA2002F090FAE0
:10594000002002F08DFAD22002F08AFA002002F044
:1059500087FAD92002F084FA002002F081FAE020D0
:1059600002F07EFA002002F07BFAF32002F078FACF
:10597000002002F075FAE12002F07EFA162002F013
:105980006FFA002002F06CFA1C2002F069FA002085
:1059900002F066FA222002F063FA002002F060FAB8
:1059A000362002F05DFA002002F05AFA452002F09B
:1059B00057FA002002F054FA522002F051FA002067
:1059C00002F04EFA642002F04BFA002002F048FA8E
:1059D0007A2002F045FA002002F042FA8B2002F011
:1059E0003FFA002002F03CFA992002F039FA002038
:1059F00002F036FAA82002F033FA002002F030FA62
:105A0000B92002F02DFA002002F02AFAC42002F098
:105A100027FA002002F024FACA2002F021FA00201E
:105A200002F01EFAD22002F01BFA002002F018FA4F
:105A3000D82002F015FA002002F012FAE02002F05D
:105A40000FFA002002F00CFAF32002F009FA00200D
:105A500002F006FAE22002F00FFA052002F000FA46
:105A6000002002F0FDF90B2002F0FAF9002002F00C
:105A7000F7F91B2002F0F4F9002002F0F1F93420CC
:105A800002F0EEF9002002F0EBF9442002F0E8F910
:105A9000002002F0E5F94F2002F0E2F9002002F0C8
:105AA000DFF9612002F0DCF9002002F0D9F9792059
:105AB00002F0D6F9002002F0D3F9882002F0D0F9E4
:105AC000002002F0CDF9972002F0CAF9002002F080
:105AD000C7F9A62002F0C4F9002002F0C1F9B720EE
