:020000040800F2
:100000005835072049040008C79E0008E358000837
:10001000550400081D210008B5BB000800000000C1
:100020000000000000000000000000008503000840
:100030002124000800000000E1030008D5A4000806
:1000400063040008630400086304000863040008F4
:1000500063040008630400086304000863040008E4
:1000600063040008630400086304000863040008D4
:1000700063040008630400086304000863040008C4
:1000800063040008630400086304000863040008B4
:1000900063040008630400086304000863040008A4
:1000A0006304000863040008630400086304000894
:1000B000630400084DA500086304000863040008F9
:1000C0006304000863040008630400086304000874
:1000D0006304000865BB00086304000863040008AB
:1000E0006304000863040008630400086304000854
:1000F0006304000863040008630400086304000844
:100100006304000863040008630400086304000833
:100110006304000863040008630400086304000823
:100120006304000863040008630400086304000813
:100130006304000863040008630400086304000803
:1001400063040008630400086304000863040008F3
:1001500063040008630400086304000863040008E3
:1001600063040008630400086304000863040008D3
:100170006304000863040008630400080000000032
:1001800063040008630400086304000863040008B3
:1001900063040008630400086304000863040008A3
:1001A0006304000863040008630400086304000893
:1001B0006304000863040008630400086304000883
:1001C00063040008630400080000000063040008E2
:1001D0006304000863040008630400086304000863
:1001E0006304000863040008630400086304000853
:1001F000630400086304000800F002F800F0B2F89D
:100200000AA090E8000C82448344AAF10107DA4571
:1002100001D100F0A7F8AFF2090EBAE80F0013F011
:10022000010F18BFFB1A43F001031847F09B0400AD
:10023000109C04000A444FF0000C10F8013B13F02E
:10024000070408BF10F8014B1D1108BF10F8015B2F
:10025000641E05D010F8016B641E01F8016BF9D122
:1002600013F0080F1EBF10F8014BAD1C0C1B09D179
:100270006D1E58BF01F801CBFAD505E014F8016BEB
:1002800001F8016B6D1EF9D59142D6D3704700007D
:100290000023002400250026103A28BF78C1FBD88F
:1002A000520728BF30C148BF0B6070476E2900F06D
:1002B000C984702900F03D8266293FF0AC8365292E
:1002C0003FF0A98367293FF0A68361293FF0A5830A
:1002D00003681B0A28BF41F08001692900F0AE8144
:1002E000642900F0AB81752900F0A8816F2900F026
:1002F000BA85782900F00982E92900F05585E429BA
:1003000000F05285F52900F04F85EF2900F0B78500
:10031000F82900F008820368DB0928BF41F080015A
:10032000632900F0C584732900F0CA84E32901F031
:100330009181F32901F09681002070471FB53FF0AD
:1003400065FB01F0E9F90400002000213FF048FBC3
:10035000401C6060002000213FF02CFBE0601FBDCE
:1003600010B510BD01F0AAF91146FFF7E7FF37F00D
:1003700085FB01F087FA03B4FFF7F2FF03BC0EF030
:1003800029F800002D4B19680868B0E8F04F80F399
:100390000988BFF36F8F4FF0000080F3118870471A
:1003A0000000000008480068006880F308884FF0EB
:1003B000000080F3148862B661B6BFF34F8FBFF3BD
:1003C0006F8F00DF00BF00BF08ED00E0DFF80C001A
:1003D000016841F470010160704700BF88ED00E0E2
:1003E000EFF30980BFF36F8F144B1A681EF0100FE4
:1003F00008BF20ED108A20E9F04F106009B44FF0DB
:10040000500072B680F31188BFF34F8FBFF36F8F28
:1004100062B63EF03BFB4FF0000080F3118809BC50
:1004200019680868B0E8F04F1EF0100F08BFB0EC74
:10043000108A80F30988BFF36F8F7047A0020220F3
:10044000EFF30580704700000948804709480047DE
:10045000FEE7FEE7FEE7FEE7FEE7FEE7FEE7FEE774
:10046000FEE7FEE704480549054A064B70470000D1
:10047000E9A40008F9010008582F07205835072083
:100480005831072058310720704753EA020C00F01A
:1004900069802DE9F04B4FF00006002B1FBFB3FA27
:1004A00083F503FA05F424FA05F65E4012BF1643FD
:1004B000B2FA82F502FA05F4C5F120051EBF22FA50
:1004C00005FC44EA0C04203556EA044C4FEA144477
:1004D00018BF641C4FF000084FF00009904271EB08
:1004E000030C39D3002919BFB1FA81F701FA07F6D5
:1004F000B0FA80F700FA07F6C7F120071EBF20FA0E
:1005000007FC46EA0C062037B6FBF4FCA7EB050710
:10051000103F07F01F0BCBF120060CFA0BFB2CFA57
:1005200006F644BFB3460026202FA4BF5E464FF018
:10053000000B5BEA060C08BF4FF0010B19EB0B092F
:10054000ABFB027C48EB0608C01B06FB02CC0BFB96
:1005500003CC71EB0C01C1E70B460246414648460D
:10056000BDE8F08B13B54FF000004FF00001AFF382
:100570000080BDE81C4070470A46014900F0A4BB5A
:10058000280002200FB4044910B503AA029800F015
:100590009BFB10BC5DF814FB2800022070B50446DC
:1005A00085690068C10601D5302600E02026C00715
:1005B00007D070BDD4E9012130469047206A401C25
:1005C00020626D1EF6D570BD70B504468569007851
:1005D000C00707D170BDD4E9012120209047206ACF
:1005E000401C20626D1EF6D570BD70B50C460546E8
:1005F000012A05D02878800600D5EA69002302E0A8
:10060000012305E05B1C934202D2E05C0028F9D193
:10061000A869E618C01AA861286A18442862284602
:10062000FFF7BCFF04E0D5E9012114F8010B904766
:10063000B442F8D32846FFF7C7FF70BD2DE9F0415B
:100640000646002410687529314616A510D000F022
:100650008EFA002802DA404213A507E031688A07C3
:1006600001D512A502E0490704D511A5012401E036
:1006700000F086FA00210A2206F1240709E0B0FB07
:10068000F2FCB0FBF2F302FB1C0030307854184649
:10069000491C0028F3D123462A463046BDE8F041E4
:1006A00000F077BA000000002D0000002B000000D1
:1006B00020000000F0B40D460188090502D5214C48
:1006C0007C4402E01F4C7C440E34002100F12406DF
:1006D00008E002F00F071209E75D42EA03721B0906
:1006E0007754491C52EA0307F3D10278002312071A
:1006F00004D5702D06D009B1022311342246F0BC76
:1007000000F047BA01231034F8E770B504460D46EF
:100710002146106800F034FA024629462046BDE81A
:1007200070400023C6E7D21D22F00703D3E900235F
:10073000C0E70368126843F0200303600823C36125
:100740000023B7E7F58C04002DE9F05F89460446E5
:100750004FF0000ADFF874B1FB44C0F820A0204637
:10076000E1688847002874D0252806D0D4E9012103
:100770009047206A401C2062F1E700265F46204631
:10078000E16888472028054607DB312D05D2781916
:1007900010F8200C08B10643F1E7B00701D526F0A8
:1007A0000406C4F81CA00027C4F818A02A2D09D0FC
:1007B00028460BF06AFA38B304EB8708303DC8F8D6
:1007C000185019E059F8041B204604EB8702916188
:1007D000E1688847012F054618D1E069002820DA32
:1007E00026F020061DE0D8F8180000EB800005EB8D
:1007F00040003038C8F818002046E16888470546B0
:100800000BF043FA0028EED1012F0AD02E2D08D18B
:100810002046E16888477F1C0546022F46F02006E7
:10082000C4DBA069002803DA404246F00106A0615B
:10083000F00701D026F010066C2D0BD0682D09D0E2
:100840004C2D39D06A2D35D0742D35D07A2D33D03A
:1008500016E038E0E1682F4620468847B842054652
:1008600009D16C2F26D04FF48060E1680643204602
:100870008847054604E06C2F1AD04FF48070064379
:100880000DB3A5F14100192802D8203546F40066C1
:100890004A462946204626604E46FFF707FD80B1AE
:1008A00001280BD0F61D26F0070000F1080956E7D5
:1008B0004020E4E78020D8E70020D6E706F10409CD
:1008C0004DE7284652E7206ABDE8F09F858C04007A
:1008D00040EA0103024630B59B0710D14FF00134C6
:1008E00000E008C208C91D1B9D4315EAC41FF8D0CB
:1008F00013F0FF0102F8011B0DD01B0AF8E711F8F5
:10090000013B002B02F8013B05D011F8013B002B05
:1009100002F8013BF3D130BD10B5431C02E010F8E2
:10092000011B71B18107FAD14FF0013202C88C1A54
:100930008C4314EAC211F9D0C01A0A0603D0C01EB3
:1009400010BDC01A10BD0A0401D0801E10BD0902DE
:10095000FCD0401E10BD032A40F2308010F0030C82
:1009600000F0158011F8013BBCF1020F624498BF02
:1009700011F801CB00F8013B38BF11F8013BA2F19F
:10098000040298BF00F801CB38BF00F8013B11F01A
:10099000030300F02580083AC0F0088051F8043BBA
:1009A000083A51F804CBA0E80810F5E7121D5CBF27
:1009B00051F8043B40F8043BAFF30080D20724BF5A
:1009C00011F8013B11F801CB48BF11F8012B24BFEE
:1009D00000F8013B00F801CB48BF00F8012B70473D
:1009E00010B5203AC0F00B80B1E81850203AA0E8CA
:1009F0001850B1E81850A0E81850BFF4F5AF5FEAFE
:100A0000027C24BFB1E81850A0E8185044BF18C9B0
:100A100018C0BDE810405FEA827C24BF51F8043B57
:100A200040F8043B08BF7047D20728BF31F8023BAB
:100A300048BF11F8012B28BF20F8023B48BF00F83F
:100A4000012B704702F0FF0343EA032242EA02420D
:100A500000F002B84FF000020429C0F0128010F03C
:100A6000030C00F01B80CCF1040CBCF1020F18BF8A
:100A700000F8012BA8BF20F8022BA1EB0C0100F01D
:100A80000DB85FEAC17C24BF00F8012B00F8012BF0
:100A900048BF00F8012B70474FF0000200B5134625
:100AA00094469646203922BFA0E80C50A0E80C508E
:100AB000B1F12001BFF4F7AF090728BFA0E80C503F
:100AC00048BF0CC05DF804EB890028BF40F8042B38
:100AD00008BF704748BF20F8022B11F0804F18BFA5
:100AE00000F8012B704700004FF0013C50F8042B38
:100AF00051F8043B9A4215D1A2EB0C03934313EA3D
:100B0000CC130BD150F8042B51F8043B9A4209D175
:100B1000A2EB0C03934313EACC13E7D04FF0000091
:100B2000704700BFD01A01BAB1FA81F101F0180183
:100B300022FA01F0CB40C1F12001DBB2C0B2C01AF1
:100B40002CFA01F3D11A914311EAC311E6D170478F
:100B5000704770477047704710B500F09BF9006808
:100B600010BD10B5044600F095F9046010BD096889
:100B70004A0501D540B27047C905FCD500B270479F
:100B800009684A0501D5C0B27047C905FCD580B2D5
:100B900070472DE9F0470D4699469246044600F10C
:100BA00024080168880604D5E06921F0100121605D
:100BB00000E00120A84201DD471B00E00027A169F9
:100BC0007A1902EB0900081AA0612078C00602D445
:100BD0002046FFF7E3FC002608E0D4E901211AF8DB
:100BE00006009047206A401C761C20624E45F4DBCC
:100BF0002078C0060AD52046FFF7D0FC06E0D4E9ED
:100C0000012130209047206A401C2062381EA7F145
:100C10000107F4DC07E0D4E9012118F8050090474A
:100C2000206A401C2062281EA5F10105F3DC204645
:100C3000FFF7CAFC2078000602D50220BDE8F08745
:100C40000120FBE711680268006A530501D50870AE
:100C50000AE0D30501D5088006E0130603D5C217C4
:100C6000C1E9000200E008600120704701694A1CE8
:100C700002610878704700B58FB0CDE901310021DD
:100C8000059105497944CDE9031011466846FFF7FF
:100C90005BFD0FB000BD0000E5FFFFFF10B543692D
:100CA00013B1AFF3008001E0FFF79FFC012010BDFE
:100CB000127800F124010A7000224A700122EDE747
:100CC00011684FF0FF32E9E7074B70B50D467B44E2
:100CD000FFF7D1FF0446284600F0C8FC10B14FF0E2
:100CE000FF3070BD204670BD0FA701002DE9FF5FEA
:100CF00015468A460446DFF8AC80F8440027D8E958
:100D000000103E46CDE9001010E03AF816106A4691
:100D100002A800F0AFFC411C07D02178890603D55A
:100D2000E269391891420DD80744761C2078800674
:100D300002D5E069B84205DDAE42E6DB3AF81600BE
:100D40000028E2D1A069C01BA0612046FFF726FC65
:100D5000D8E90010CDE90010002017E03AF818108B
:100D60006A4602A800F086FCB0F1FF3F81460BD036
:100D700000250DF1080B05E0D4E901211BF8050061
:100D800090476D1C4D45F7D308F10100B0428046F5
:100D9000E4DB206A384420622046FFF715FCBDE8FA
:100DA000FF9F0000F68604002DE9F0418046D21D29
:100DB00022F007020025D2E90002F52915A614D079
:100DC000011E72F1000106DA0023D0EB030063EB91
:100DD000020211A608E0D8F800108B0701D50FA673
:100DE00002E0490701D50EA601251146002408F1AD
:100DF000240704E000F052F830323A55641C50EAFF
:100E00000102F7D12B46324621464046BDE8F0416B
:100E1000FFF7BFBE000000002D0000002B00000007
:100E20002000000030B4002100F1240408E002F0AA
:100E30000705D208303542EA4372DB086554491C85
:100E400052EA0305F3D10468002310A2250707D551
:100E5000A40600D421B1C46901230DA2641EC4619B
:100E600030BCFFF796BE10B5044621461068FFF768
:100E700087FE02462046BDE810400023D2E7D21D7F
:100E800022F00701D1E90023CCE7000000000000B8
:100E90003000000000487047F82E072030B5B0F150
:100EA0000A024FEA900E71F100034EEA817EB0EB28
:100EB0000E0061EB91014FEA101E4EEA017E10EB2D
:100EC0000E0041EB11114FEA102E4EEA016E10EBAD
:100ED0000E0041EB11214FEA104E4EEA014E10EB8D
:100EE0000E0041EB1141401841F100014FEAD000E2
:100EF00040EA41704FEAD10110EB80054FEA8104CE
:100F000044EA907444EB01046D1944EB0404521B51
:100F1000A3414FF0000348BF0A3200D530BD401C4A
:100F200041F1000130BD70472DE9FF4F0C461E46D0
:100F30004FF0FF378BB0D2E90001DDF860800A90F6
:100F40008A46C1F30A5505B93D46002108464FF0CF
:100F50000000BAF1000F00F4400005DA00EB800059
:100F60004FF4400101EA50004FEA9059B9F1010FE6
:100F700000DDB9460A9850EA4A000ED044F61050F7
:100F8000A5F2FF3545432F14B8F1000F1ED075426E
:100F9000291E1EDDC9F100021CE0B8F1010F4FF05F
:100FA000000001D0302103E0F24305E02154401C51
:100FB000B042FBDB30460022002121540B99C1F8DE
:100FC0000880C1E900200FB0BDE8F08FBD1B6D1C8B
:100FD000DEE74A4600DA694206A800F0E1FB06AB0C
:100FE00093E8070003AB83E8070050460A9900F036
:100FF00052FC8DE80700A0F500501F3800900398C0
:10100000002D0ADD42F21F014A460844002303A9CD
:101010000390684600F0BBFE09E0A0F500504A4688
:101020001F38002303A90390684600F0C5FE8DE831
:1010300007000004000C03D04FF0FF30410800E02F
:101040001046B8F1000F03D00022009215461EE0B2
:10105000751E05D4FFF722FF303262556D1EF9D59B
:10106000B3460122084302D000227F1C04E020780E
:10107000302801D100227F1E002A099784D01DE06C
:10108000112D07DAFFF70AFF303262556D1C50EA66
:101090000102F5D1084302D00098C8B10EE000214A
:1010A000681E05E0235C625C63542254401E491CA8
:1010B0008142F7DBAB46A81B401E0990002004F8D4
:1010C0000B000B98099AC0F80880C0E9002B7AE75A
:1010D00011264FF0000857E72DE9F04F88460446E7
:1010E000D21D22F0070191B0D1E90001CDE90A013A
:1010F0000AF062FD02460B98C00F01D02D2007E0D8
:101100002068810701D52B2002E0202101EAC000E0
:10111000032A099001D0072A05DB034641462046F1
:1011200000F0FEFA0BE12078800601D5E06900E0CE
:101130000620B8F1650F814606D0B8F1660F18D0C9
:10114000B8F1670F70D131E00020B9F1110F0090B4
:1011500001DB112301E009F101030AAA01A90CA88E
:10116000FFF7E2FEDDE90C70002609F10105834678
:1011700047E001204B4600904FF000470AAA01A922
:101180000CA8FFF7D1FEDDE90DB00C995D460026F5
:1011900010B909F101000D18B9EB050003D4C0F135
:1011A000FF3609F10105A5EB09002BE0B9F1010FAC
:1011B00001DA4FF001090020B9F1110F0090484603
:1011C00001DD112300E003460AAA01A90CA8FFF7DC
:1011D000ABFEDDE90C704D46002683462078000703
:1011E0000AD4AB4500DA5D4601A8012D04DD4119A2
:1011F00011F8011C302907D04F4502DA17F1040F0E
:1012000004DA012082460FE06D1EEEE7002F02DCBB
:10121000ED1B3E4403E0781CA84200DD7D1CB81B9A
:1012200000F1010A4FF000472078000703D4AA45D7
:1012300001DB4FF0FF3A0021B7F1004F0DF14308F9
:101240008DF8431024D002202B23002F01DA7F4297
:101250002D230A21021EA0F1010000DC5FB197FBE3
:10126000F1FC97FBF1F201FB1C7C17460CF1300CF2
:1012700008F801CDEEE7A8F1010003702188090507
:1012800001D5452100E06521A0F1010800F8011C0D
:1012900009980FA9A1EB0807FF1D00B10120411912
:1012A00001EBEA70A1693844081A401EA061207859
:1012B000C00602D42046FFF771F9099828B1D4E995
:1012C00001219047206A401C20622078C00622D568
:1012D0002046FFF763F91EE0002E04DBB34502DD74
:1012E00001A8805D00E03020D4E901219047206A08
:1012F000401C2062761CAAF101005FEA000A0AD1B4
:1013000000F00AFAC0680168405CD4E90121904706
:10131000206A401C2062281EA5F10105DCDC07E0E4
:10132000D4E9012118F8010B9047206A401C206283
:10133000381EA7F10107F3DC2046FFF745F903202B
:1013400011B041E62DE9F04F04460D46D21D22F0C2
:10135000070089B0D0E90097484639460AF02CFCCE
:101360000246F80F01D02D2307E02068810701D540
:101370002B2302E0202101EAC0038DF820300BB1BD
:10138000012000E00020032A824601D0072A04DB66
:101390002946204600F0C4F93FE12078800601D4B8
:1013A0000D2500E0E569C7F30A560D2D49DA002145
:1013B0004FEA175B08464FF00000002F00F4400092
:1013C00007DA00EB80004FF4400100EBD07001EA37
:1013D00060008115012901DD4FF0FF3100224FEA45
:1013E000850CBCF1180F06D31346ACF118004FF072
:1013F0008052C24003E04FF4801323FA0CF30CF147
:101400000C0CBCF1200F04D3ACF1200C09FA0CF049
:1014100001E007FA0CF000294FF0004801DD18B98F
:101420000FE00ED140450CD319EB02095F4121B901
:10143000404502D19F4329EA0209BBEB175F00D068
:10144000761C2088000502D57B48784402E07A4863
:101450007844193808AA302302F80A30037C0AF1CC
:101460000101002E0AF1020A53546A4602DC4FF0D1
:10147000300101E04FF031014FF001088DF800100C
:1014800002D0A6F2FF3603E059EA470100D06B4EC6
:10149000002D02DC2178090704D54FF002082E2127
:1014A0008DF80110C44600210BE0C7F303433F0150
:1014B000C35C491C6D1E02F80830052908F10108BB
:1014C00001DA002DF1DC00210CE000EB1973491C5E
:1014D0001B786D1E082902F808304FEA091908F137
:1014E000010801DA002DF0DC21688B0602D516E038
:1014F000A8F10108E04505DD02EB080313F8013C03
:10150000302BF5D0B8F1000F09DD02EB080313F81A
:10151000013C2E2B03D1090701D4A8F10108002DAD
:1015200005DD3E2102F808106D1E08F10108407C1F
:10153000002E02F8080008F1010804DA2D20764296
:1015400002F8080002E02B2002F808000A214FF4FC
:101550007A70864208F101080BDB96FBF0F330331A
:1015600002F8083096FBF0F308F1010800FB13665F
:1015700001E0642E0CDB642096FBF0F3303302F8BC
:10158000083096FBF0F308F1010800FB136601E058
:101590000A2E06DB96FBF1F0303002F8080008F165
:1015A000010896FBF1F001FB1060303002F80800F2
:1015B000A16908F1010808EB050202EB0A00081A0C
:1015C000A0612078C00602D42046FEF7E7FF216A1A
:1015D00008AE01EB0A00206204E0D4E9012116F80C
:1015E000010B9047BAF1010AF7D22078C00602D564
:1015F0002046FEF7D3FF6E4609E016F8010B3E28A1
:101600000FD0D4E901219047206A401C2062B8F134
:101610000108F2D22046FEF7D7FF09B00320BDE84B
:10162000F08F206A2844206203E0D4E901213020B1
:1016300090476D1EEBD3F8E7C17F040002FCFFFF6B
:1016400010B5436913B1AFF3008001E0FFF74EFB23
:10165000012010BD128800F1240182840022C2847E
:101660000122EDE711684FF0FF32E9E7007B00F05F
:101670008000704770B516460C46054600F044F8E9
:10168000036893F80101012806D0FF2C0FD8185DDC
:1016900068B101202C7070BDD3F807013246214695
:1016A00003F2071303442846BDE8704018474FF083
:1016B000FF3070BD00487047F82E07207546FFF7D1
:1016C000F9FFAE4605006946534620F007008546FF
:1016D00018B020B5FEF7C6FEBDE820404FF000066A
:1016E0004FF000074FF000084FF0000B21F007010A
:1016F000AC46ACE8C009ACE8C009ACE8C009ACE84D
:10170000C0098D467047000010B500F005F8001DB7
:1017100010BD00BFCDE2030000487047182F07201E
:101720002DE9F0411F46044603260168072A01F40B
:10173000006004DB08B116A505E016A503E008B1BA
:1017400015A500E015A521F010002060A069C01EBD
:10175000A0610FB1401EA0612046FEF71FFF4FB1F0
:10176000D4E9012138469047206A401C2062C01C01
:10177000206206E0206AFAE7D4E9012115F8010B9E
:101780009047761EF8D22046FEF71EFFBDE8F08196
:101790004E414E006E616E00494E4600696E660015
:1017A0002DE9F047814616468AB0354878440DC881
:1017B0008DE80D0032487844801C03AC0DC884E8E5
:1017C0000D0041F69B300844372190FBF1F290FB6D
:1017D000F1F5A5F1800501FB12041B3C02D5644222
:1017E000012000E00020DFF898A080460027FA449E
:1017F000AAF1BE0A0EE0E0070AD03246684607EBBF
:10180000470101230AEB810100F0D6FA8DE80700B9
:1018100064107F1C002CEED1194F7F44AE3F19E0BD
:10182000E80715D007EB04100DF1180A90E80E0038
:101830008AE80E00C068F04201D19819089032463B
:10184000012306A903A800F0B7FA03AB83E8070059
:101850006D10641C002DE3D14FF001033246694640
:10186000B8F1000F03A802D000F091FA01E000F0F7
:10187000A3FAC9E90001C9F808200AB0BDE8F08759
:10188000F07C040010B50446AFF300802046BDE8AC
:101890001040FEF770BD5FEA400C08BF91F0000FEA
:1018A0004FEA8C234FEAC12243EA51514FEA1C50C0
:1018B00018BF00F5F0404FEA300018BF41F000417A
:1018C0005FEA6C5C00F02980BCF1FF3F08BF40F08C
:1018D00080407047130C06BF12044FF0100C4FF0FD
:1018E000000C130E04BF12020CF1080C130F04BFFE
:1018F00012010CF1040C930F04BF92000CF1020CC6
:10190000D30F04BF52000CF1010C11464FF000023E
:10191000A0F11F00A0EB0C00704711F0004F08BFB2
:10192000704731F000413FF4D5AF0B0C06BF0904FE
:101930004FF0100C4FF0000C0B0E04BF09020CF11D
:10194000080C0B0F04BF09010CF1040C8B0F04BF32
:1019500089000CF1020CCB0F04BF49000CF1010C03
:10196000CCF12003A0EB0C0022FA03F302FA0CF2F4
:1019700041EA030100F10100704720F07F4C80EA4A
:10198000030023F07F47ACEB070303F57C5300F023
:10199000004003F1FF032DE980494FEA154B09B4DC
:1019A0004FEA144325EA0B4E24EA03480FF20426BB
:1019B00006EB132749083E785FEA320203FB06670D
:1019C000C7F5000707FB06F64FEA54374FEAD6463D
:1019D00006F1020607FB066CCCF1005C4FEA1C47DF
:1019E0002CEA074C07FB06F40CFB06F504EB154646
:1019F0004FEA961634BF00204FF000404FEAD1372F
:101A000006FB07FC4FEA1C4C0CFB0BF7D21B03FB3D
:101A10000CF761EB07010CFB0EF7B0EB074072EB24
:101A200017420CFB08F734BFA2EB0742B2EB0742A8
:101A300061EB17414FEA0C444FEA910706FB07FCA4
:101A40004FEA1C4C0CFB0BF7B0EBC74072EB573264
:101A500003FB0CF734BFA2EBC742B2EBC74261EB0A
:101A600057310CFB0EF7B0EBC70072EB57720CFB53
:101A700008F734BFA2EBC702B2EBC70261EB5771A4
:101A8000039F4FEA816141EA921104EBCC044FEAD3
:101A9000D1374FEA826206FB07FC42EA90124FEA16
:101AA00080604FEA1C4C0CFB0BF7D21B03FB0CF7BE
:101AB00061EB07010CFB0EF7B0EB074072EB17422E
:101AC0000CFB08F734BFA2EB0742B2EB074261EB15
:101AD00017414FEA8C554FEA910704EB9C2406FB13
:101AE00007FC4FEA1C4C0CFB0BF7B0EBC74072EB4A
:101AF000573203FB0CF734BFA2EBC742B2EBC7422D
:101B000061EB57310CFB0EF7B0EBC70072EB57726D
:101B10000CFB08F734BFA2EBC702B2EBC70261EBC4
:101B2000577115EB4C254FEA816141EA92114FEA5A
:101B300082624FEAD13742EA901206FB07FC44F179
:101B400000044FEA80604FEA1C4C0CFB0BF7D21BE1
:101B500003FB0CF761EB07010CFB0EF7B0EB074042
:101B600072EB17420CFB08F734BFA2EB0742B2EB53
:101B7000074261EB174115EB1C154FEA813141EA31
:101B800092414FEA823242EA90424FEA80304FEA75
:101B90000C7644F1000448EA03434EEA0B484FF048
:101BA000000EB2EB080C71EB030724BF6246394606
:101BB0004EEB0E0E4FF0000B0018524149414BEB1B
:101BC0000B0BB2EB080C71EB03077BF1000B24BF8E
:101BD000624639464EEB0E0E4FF0000B0018524194
:101BE00049414BEB0B0BB2EB080C71EB03077BF19C
:101BF000000B24BF624639464EEB0E0E51EA020737
:101C000018BF46F0010616EB0E7655F1000254F1AE
:101C1000000103D5BDE88901BDE80088BDE8890160
:101C2000BDE80048B619524141EB0101A3F101039F
:101C3000704780807F7E7D7C7B7A79787776767539
:101C40007473727171706F6E6E6D6C6C6B6A6A69B1
:101C50006868676666656464636362616160605F4B
:101C60005F5E5E5D5D5C5C5B5B5A5A5959585857C4
:101C7000575656555555545453535252525151502C
:101C800050504F4F4F4E4E4D4D4D4C4C4C4B4B4B7F
:101C90004A4A4A49494948484847474747464646C5
:101CA0004545454444444443434343424242424100
:101CB0004141002B9C4630D477002BD01CB54FEA15
:101CC000370703B44FF010004FF01001BAF1000FC6
:101CD00006D0BCF1000FDCBF40F0080040F0080166
:101CE0004FF000000FBCBDE810400BF1010BBBF141
:101CF000010F08BF5FEA170722BF12F1010211F1BD
:101D000001014FF0004143F1000300F0004043EABD
:101D100000007047F9D35708D0E746EA064613F1AA
:101D2000400F4FEA16461FDD13F1200FDFBF1643A9
:101D30000A46002120335B42BED0C3F1200746EAA9
:101D4000064602FA07F74FEA164646EA0706C3F1C7
:101D5000200722FA03F201FA07F721FA03F14FF004
:101D6000000342EA0702A7E746EA020646EA0646F9
:101D70004FEA164646EA0106BCBF46EA0646360C5E
:101D80004FF000034FF000024FF0000194E72DE9FF
:101D9000804C9A46934670B491E8380007C831EAFF
:101DA000400C48BF34EA430C03D5FFF7E6FDFFF7CC
:101DB00080FFF0BCBDE8008C2DE9804C9A4693462C
:101DC00070B491E8380007C810F0804F08BF13F0D6
:101DD000804F03D100F005F8FFF76BFFF0BCBDE8C2
:101DE000008C20F07F4780EA030023F07F4C07EB54
:101DF0000C03A3F57C5300F00040A3F1FE0392F026
:101E0000000F00F0B38095F0000F00F077802DE90F
:101E100001494FEA11404FEA144621EA004800FB0D
:101E200006FC24EA064708FB06F607FB08F800FB59
:101E300007F718EB06484CEB164C4FEA124B18EB21
:101E400007484FEA15464CEB174022EA0B4E0BFBB6
:101E500006FC25EA06470EFB06F607FB0EFE0BFB0B
:101E600007F71EEB064E4CEB164C4FF000061EEB30
:101E7000074E4CEB174B18EB0B0840F1000018EB2A
:101E80000E0B58EB000840F100008F1A4FF00001D4
:101E90003CBFC943661B14BFB5EB040C00213CBF1B
:101EA000C943F61B4FEA17444EEA8E0E27EA044553
:101EB0004FEA1C4704FB07622CEA074C05FB07F7B7
:101EC0000CFB05F604FB0CFC16EB074642EB174235
:101ED00016EB0C4642EB1C421BEB060658EB0202CB
:101EE000414146EA9E0601D5BDE80189B619524135
:101EF00041EB0101A3F10103BDE801894FEA14455B
:101F00004FEA114724EA054621EA074C05FB07F48E
:101F100006FB07F70CFB06F105FB0CFC11EB074178
:101F200044EB17444FEA124711EB0C4144EB1C44BD
:101F300022EA074C05FB07F206FB07F70CFB06F647
:101F400005FB0CFC16EB074642EB174216EB0C4662
:101F500042EB1C456A1854F1000148BF7047B6199E
:101F6000524141EB0101A3F10103704795F0000FCD
:101F700037D04FEA11424FEA144721EA024624EAD9
:101F8000074C02FB07F106FB07F70CFB06F402FB0C
:101F90000CFC14EB074441EB17414FEA154714EBD7
:101FA0000C4441EB1C4125EA074C02FB07F506FBFC
:101FB00007F70CFB06F602FB0CFC16EB074645EB9D
:101FC000174516EB0C4645EB1C42121951F1000166
:101FD00048BF7047B619524141EB0101A3F101031B
:101FE00070474FEA14454FEA114724EA054621EAB3
:101FF000074C05FB07F106FB07F70CFB06F24FF059
:10200000000605FB0CFC12EB074241EB174112EBFB
:102010000C4251EB1C4148BF7047921841EB010143
:10202000A3F10103704710B503F088FC10BD70B533
:1020300006460C46154608E03046721C96B200F083
:1020400007F804F8010B681E85B2002DF4D170BDAD
:1020500070B50446002603F03BFD2546E11704EB6E
:1020600011610912A02202EB4101C8B203F0F2FC97
:1020700003F082FDE11704EB11610912A4EB0121C9
:10208000C8B203F0E7FC03F077FD03F021FDA120C7
:1020900003F0E0FC03F070FD002003F0A5FC064611
:1020A00003F040FD304670BD70B505460C4616463F
:1020B00006E02178284600F009F8681C85B2641C07
:1020C000301EA6F101018EB2F3D170BD70B5044689
:1020D0000E4603F0FDFC2546E11704EB11610912E1
:1020E000A02202EB4101C8B203F0B4FC03F044FDAE
:1020F000E11704EB11610912A4EB0121C8B203F04E
:10210000A9FC03F039FD304603F0A4FC03F034FDD4
:1021100003F008FD0A200FF0A5FB70BD00BFFEE72D
:1021200010B502200FF0BEFB10BD000010B500225C
:1021300008210D4801F010FCFFF7F2FF01224021B9
:102140000A4801F009FCFFF7EBFF00224021074895
:1021500001F002FCFFF7E4FF01220821024801F030
:10216000FBFBFFF7DDFF10BD00200240001C02401A
:1021700000B587B000BF1748006840F080001549DF
:1021800008600846006800F08000019000BF00BFB2
:1021900000BF0846006840F4807008600846006888
:1021A00000F48070019000BF00BF40200290112019
:1021B0000390012004900320059002A9064801F035
:1021C000B3FA0820029002A9044801F0ADFA07B062
:1021D00000BD000030380240001C024000200240D8
:1021E00010B5012208210A4801F0B6FBFFF798FF5D
:1021F00001224021074801F0AFFBFFF791FF0022C9
:102200004021044801F0A8FBFFF78AFF10BD000041
:1022100000200240001C024070B505460024002644
:1022200018E06006040E012240210F4801F094FBE3
:10223000FFF776FF08210D4801F082FB08B1601C12
:10224000C4B200224021084801F086FBFFF768FF76
:10225000701CC6B2082EE4DB15B9FFF7C1FF01E020
:10226000FFF764FF204670BD001C024000200240C2
:1022700070B5044600251EE0E00928B101220821BE
:10228000114801F069FB04E0002208210E4801F02A
:1022900063FBFFF745FF012240210C4801F05CFB86
:1022A000FFF73EFF00224021084801F055FB600681
:1022B000040E681CC5B2082DDEDB0122082102488D
:1022C00001F04AFB70BD000000200240001C0240EB
:1022D00010B5012208210C4801F03EFB01224021EB
:1022E0000A4801F039FBFFF71BFF002208210648CE
:1022F00001F032FBFFF714FF00224021034801F0F8
:102300002BFBFFF70DFF10BD00200240001C024018
:1023100010B5002208210A4801F01EFBFFF700FF5C
:1023200001224021074801F017FBFFF7F9FE0122C7
:102330000821034801F010FBFFF7F2FE10BD00007A
:1023400000200240001C024070B50024002501223C
:102350000821134801F000FBFFF7E2FE01224021B3
:10236000104801F0F9FAFFF7DBFE09E0601CC4B287
:10237000FA2C03DDFFF7CCFF012507E0FFF7D0FEC5
:102380000821074801F0DCFA0028EFD100BF002245
:102390004021044801F0E0FAFFF7C2FE284670BD74
:1023A00000200240001C024010B500BF00BF00BF6B
:1023B00000BF00BFBFF34F8F00BF00BF00BF00BF13
:1023C00000BF00BFBFF36F8F00BF00BF00BF002082
:1023D000114908601148006840F400300F49086056
:1023E00000BF00BF00BFBFF34F8F00BF00BF00BFE3
:1023F00000BF00BF00BFBFF36F8F00BF00BF00BFB3
:1024000000BF07F03DFF04484C30006840F0040076
:1024100001494C31086010BD50EF00E014ED00E0C0
:102420007047000070B504461D460023B5F5804F87
:1024300013D154F822300C480340D1E9000640EA99
:1024400006108E6840EA06208E8940EA06408E69B2
:102450003043034344F8223003E06FF0704044F807
:102460002200002070BD00000000F0CF10B5024631
:102470000023086852F820301B480340D1E90104CA
:102480002043CC6820430C6920434C6920438C696D
:102490002043CC6920430C6A20434C6A20438C6A59
:1024A0002043CC6A20430C6B20438C6B20434C6B45
:1024B000204303438868082801D143F0400308689B
:1024C00042F82030086BB0F5801F05D1086818B1BC
:1024D00010680C6B20431060086818B110684C6BD2
:1024E00020431060002010BD8004C0FF30B50346BB
:1024F00014460022601C53F8202002F04042D1E92B
:10250000000540EA05108D6840EA05208D8940EA03
:102510000545088A401E45EA0055087D801E45EAAB
:1025200000608D6928430243601C43F8202018682E
:1025300000F4801038B1586820F47002088A401EF8
:1025400042EA00525A60002030BD30B502460023F6
:1025500000240868012816D013686FF30E03D1E930
:1025600001052843CD6828430D6928434D69284358
:102570008D692843CD6928430D6A28434D6A284355
:102580000343136019E0136823F4F843D1E9070506
:1025900028434D6A2843034354686FF30E04D1E97E
:1025A00001052843CD6828430D6928434D69284318
:1025B0008D692843044313605460002030BD0246F7
:1025C000506940EA4100506100207047F8B5064666
:1025D0000C461546002000900027D4E9000108436E
:1025E000A168491E40EA4110E16840EA412000909C
:1025F0000098306101F0B6F9074609E0681C38B16F
:1026000025B101F0AFF9C01BA84201D90320F8BDE4
:10261000B06900F020000028F0D100BFF7E700000B
:1026200070B50346154600220024012D1FD09A687C
:1026300002F070420868401E4E68761E40EA061698
:102640008868401E46EA0026C868401E46EA0036F2
:10265000088A401E46EA0046888A401E46EA00561E
:10266000087E401E46EA006002439A6022E09A68B3
:1026700011480240C868401E0603888A401E46EA88
:1026800000500243DC6804F070440868401E4E6845
:10269000761E40EA06168868401E46EA0026088A2A
:1026A000401E46EA0046087E401E46EA006004439B
:1026B0009A60DC60002070BDFF0F0FFF10B588B07E
:1026C000012400BF5548006840F08000534908606D
:1026D0000846006800F08000009000BF00BF00BF07
:1026E0000846006840F4807008600846006800F4FE
:1026F0008070009000BF00BF8020019000200290F9
:10270000012003900320049001A9454801F00CF832
:10271000200201900120029001A9424801F004F832
:10272000FFF726FD002221023E4801F015F9142092
:102730000FF098F8012211023A4801F00DF9322009
:102740000FF090F800208DF81800022206A9A120B1
:1027500000F078F89DF81800302803D19DF8190092
:10276000032807D09DF81900012803D09DF819000F
:10277000022824D19DF819009DF8182000EB0221B1
:1027800029A0FDF7FFFE012206A9002000F03AFA79
:10279000012206A9A42000F035FA16208DF81800B1
:1027A000012206A9802000F02DFA0C208DF81800D7
:1027B000012206A9882000F025FA00242BE004223B
:1027C00006A948F2401000F01BFB00208DF81C0009
:1027D00006A918A0FDF7D6FE194806990160022047
:1027E0008DF81800012206A948F2400000F016FDFD
:1027F000012206A948F2470000F002FB0A200FF070
:1028000031F800208DF81800012206A948F2400096
:1028100000F004FD0024204608B010BD303802400E
:10282000001C0240002002404354502049443A25F5
:10283000780D0A004354502049443A25730D0A008C
:10284000400002202DE9F04106460F461546FFF7ED
:102850003FFD7020FFF70CFDFFF776FDF0B2FFF7AC
:1028600007FDFFF771FDFFF733FD7120FFF700FD56
:10287000FFF76AFD00240BE0691EA14201D001218F
:1028800000E000210846FFF7C7FC3855601CC4B2C1
:10289000AC42F1DBFFF73CFDBDE8F08171B583B0E0
:1028A000002001900026CF480078401CCD490870D8
:1028B000084600780A2190FBF1F201FB120018B1E2
:1028C000C84800780A287DDAC7A1C848FEF70CF985
:1028D000D8B9012203A948F24E1000F091FA9DF8F0
:1028E0000C0000F08000A8B19DF80C0000F00F0073
:1028F000BF49097888420DDC00200190012201A91E
:1029000048F24E1000F08AFC04E0012203A90220E4
:10291000FFF798FF9DF80C0000F00F00002851D041
:102920009DF80C0000F00F00B1490978884249DC9D
:102930009DF80C0000F00F01FF208840C4B2AD48A4
:10294000858EE04380B240F0C000AA4988860846E0
:102950008289A7480078401E0C3121F81020A54834
:10296000028CA3480078401E143121F81020042066
:102970000EF078FF00200190AAE09E48808E9DF81E
:10298000042001219140084000282FD096A19748AB
:10299000FEF7AAF8E8BB98499DF8042031F8120028
:1029A000042202A900F02CFA924890F8440000F0AA
:1029B0000100E0B19DF808009DF8091000EB01202E
:1029C00081B200E0C2E08B480C309DF8042020F872
:1029D00012109DF80A009DF80B1000EB012081B247
:1029E000844820309DF8042020F812106BE09DF8F8
:1029F00008009DF8091000EB012081B27D482030CD
:102A00009DF8042020F812109DF80A009DF80B1084
:102A100000E00CE000EB012078490988081A81B237
:102A200074480C309DF8042020F812104BE07449D3
:102A30009DF8042031F81200042202A9FFF702FFDA
:102A40006C4890F8440000F00100E0B19DF80900E6
:102A50009DF8081001F00F0100EB012065492031BD
:102A60009DF8042021F812009DF80B009DF80A1033
:102A700001F00F0100EB01205E490C319DF80420AC
:102A800021F812001FE09DF809009DF8081001F0E0
:102A90000F0100EB012059490988081A81B25548F5
:102AA0000C309DF8042020F812109DF80B009DF8C2
:102AB0000A1001F00F0100EB01204E4920319DF872
:102AC000042021F812009DF80400401CC0B20190BF
:102AD0009DF80400464909788842FFF64EAF01266A
:102AE0004448808945490988884205DC4148008C72
:102AF00042494988884226DD9DF80C0000F00F000D
:102B000001280ADD3B48C0893A4988810846408C43
:102B1000088400203349087018E035480078401ECA
:102B200034490C3131F810000C3988813048007874
:102B3000401E203131F81000203908848020039095
:102B40000846858602E000202649087026A127480D
:102B5000FDF7CAFFF0B99DF80C0000F08F00802847
:102B600035D1244890F8340000F0800030B121487D
:102B7000808E20F080001F49888628E04FF6FF7085
:102B80001C4988810884084690F8340000F0E00071
:102B900088861CE09DF80C0000F01F00B8B91548AD
:102BA00090F8340000F0800030B11248808E20F0A0
:102BB0008000104988860AE04FF6FF700D49888131
:102BC0000884084690F8340000F0E0008886054844
:102BD0000078F02802DD0A2002490870304604B06F
:102BE00070BD000046000220393131004000022053
:102BF000450002204C00022080410408D804022035
:102C0000764104082DE9F04105460E4617464FF07F
:102C10000008FFF75DFB7020FFF72AFBFFF794FB2E
:102C2000E8B2FFF725FBFFF78FFB00240BE0305DD8
:102C3000FFF71EFBFFF788FB8046B8F1000F00D0BE
:102C400003E0601CC4B2BC42F1DB00BFFFF760FBD5
:102C50004046BDE8F081000000B589B000BF55488E
:102C6000006840F08000534908600846006800F0A2
:102C70008000019000BF00BF00BF0846006840F41C
:102C8000807008600846006800F48070019000BF02
:102C900000BF8020029000200390012004900320B8
:102CA000059002A9444800F03FFD4FF48070029067
:102CB0000120039002A9414800F036FDFFF758FAC1
:102CC00000224FF480713D4800F046FE0A200EF0CD
:102CD000C9FD01221102394800F03EFE0A200EF023
:102CE000C1FD8020029000200390049003200590F5
:102CF00002A9314800F018FD64200EF0B3FD042253
:102D000007A948F2401000F07BF800208DF8200061
:102D100007A92BA0FDF736FC2CA107A8FDF7E4FEC0
:102D200088B12BA107A8FDF7DFFE60B12AA107A893
:102D3000FDF7DAFE38B12AA107A8FDF7D5FE10B1DC
:102D4000012009B000BD22A107A8FDF7CDFE70BB90
:102D500002208DF81C00012207A948F2400000F073
:102D60005DFA012207A948F2470000F049F89DF8F2
:102D70001C0060280DDA9DF81C101BA0FDF702FC5A
:102D80001E48808845F21051884202D1012000F08F
:102D900017FA0A200EF066FD00208DF81C000122B3
:102DA00007A948F2400000F039FA0020C9E7FFE720
:102DB0000020C6E730380240001C024000200240DC
:102DC0004354502049443A25730D0A0039313100EB
:102DD000393134370000000031313538000000004F
:102DE000393237310000000044656661756C74202B
:102DF0005665723A25640D0A00000000D8040220CE
:102E00002DE9F04105460F461646FFF761FA2820E6
:102E1000FFF72EFAFFF798FA2812FFF729FAFFF7C3
:102E200093FAE8B2FFF724FAFFF78EFAFFF750FAA9
:102E30002920FFF71DFAFFF787FA00240BE0711E27
:102E4000A14201D0012100E000210846FFF7E4F98A
:102E50003855601CC4B2B442F1DBFFF759FABDE843
:102E6000F081000071B583B000240026D0480078BE
:102E7000401CCF490870084600780A2190FBF1F207
:102E800001FB120018B1CA4800780A2871DA012241
:102E900003A948F24E10FFF7B3FF9DF80C0000F0B5
:102EA000800068B19DF80C0000F00F00062807DADA
:102EB00000200190012201A948F24E1000F0AEF965
:102EC0009DF80C0000F00F00002852D09DF80C0077
:102ED00000F00F000628D9DA9DF80C0000F00F0171
:102EE000FF208840C0B20190B24890F834509DF85D
:102EF0000400C04380B240F0C000AE498886084656
:102F000081898182018C01850024F9E0A948808EA5
:102F10000121A140084000282AD0A74931F8140017
:102F2000042202A9FFF76CFFA448808845F21051E3
:102F3000884236D19F4890F8440000F00100C8B1A3
:102F40009DF808009DF8091000EB012081B2994816
:102F5000203020F814109DF80A009DF80B1000EBAB
:102F60000120C0F5487081B292480C3020F814104E
:102F7000C4E0F5E09DF808009DF8091000EB012081
:102F800081B28C480C3020F814109DF80A009DF88E
:102F90000B1000EB012081B28648203020F814107D
:102FA000ACE08648808844F24231884235D181487D
:102FB00090F8440000F00100B0B19DF808009DF8C1
:102FC000091000EB012081B27A480C3020F814106F
:102FD0009DF80A009DF80B1000EB012081B27548A6
:102FE000203020F8141089E09DF808009DF80910A1
:102FF00000EB012081B26F48203020F814109DF8BA
:103000000A009DF80B1000EB0120C0F5887081B21A
:1030100068480C3020F8141070E06848808844F24A
:103020008431884235D1634890F8440000F00100B3
:10303000B0B19DF808009DF8091000EB012081B2A5
:103040005C480C3020F814109DF80A009DF80B1015
:1030500000EB012081B25748203020F814104DE0D9
:103060009DF808009DF8091000EB012081B251483D
:10307000203020F814109DF80A009DF80B1000EB8A
:103080000120C0F5F07081B24A480C3020F81410CD
:1030900034E0484890F8440000F00100C0B19DF8C9
:1030A00008009DF8091000EB012081B24148203052
:1030B00020F814109DF80A009DF80B1000EB012079
:1030C000C0F5487081B23B480C3020F8141015E070
:1030D0009DF808009DF8091000EB012081B23548E9
:1030E0000C3020F814109DF80A009DF80B1000EB2E
:1030F000012081B22F48203020F81410601CC4B287
:10310000052CFFF603AF01262A4880892B49098840
:10311000884205DC2748008C2849498888421CDD04
:103120009DF80C0000F00F0001280ADD2148C0893D
:10313000204988810846408C088400201C4908707A
:103140000EE01C48808A1B4988810846008D08844F
:10315000802003900846858602E00020144908700C
:103160009DF80C0000F08F00802817D1114890F8CE
:10317000340000F0800030B10E48808E20F08000D6
:103180000C4988860AE04FF6FF700A498881088456
:10319000084690F8340000F0E00088860448007883
:1031A000F02802DD0A2002490870304604B070BDE4
:1031B000470002204C00022042420408D8040220AA
:1031C00038B50546002400208DF800008DF8015028
:1031D00000BF09E09DF800000F49095D0844C0B236
:1031E0008DF80000601CC4B2B82CF3D39DF8000029
:1031F000C043401CC0B28DF80000B822064948F216
:10320000470000F00BF80222694648F2FF0000F088
:1032100005F8002038BD00008A4104082DE9F0417E
:1032200004460E4617464FF00008FFF751F82820D5
:10323000FFF71EF8FFF788F82012FFF719F8FFF7DD
:1032400083F8E0B2FFF714F8FFF77EF800250BE0F3
:10325000705DFFF70DF8FFF777F88046B8F1000FC3
:1032600000D003E0681CC5B2BD42F1DB00BFFFF730
:103270004FF84046BDE8F08100B589B000BF47482F
:10328000006840F08000454908600846006800F08A
:103290008000019000BF00BF00BF0846006840F4F6
:1032A000807008600846006800F48070019000BFDC
:1032B00000BF802002900020039001200490032092
:1032C000059002A9364800F02FFA4FF48070029062
:1032D0000120039002A9334800F026FAFEF748FFC8
:1032E00000224FF480712F4800F036FB0A200EF0C8
:1032F000B9FA012211022B4800F02EFB0A200EF031
:10330000B1FA8020029000200390049003200590E1
:1033100002A9234800F008FA64200EF0A3FA042260
:1033200007A948F2401000F055F800208DF8200061
:1033300007A91DA0FDF726F91FA107A8FDF7D4FBDB
:1033400048BB02208DF81C00012207A948F240006A
:10335000FFF764FF012207A948F24700FFF750FD7D
:103360009DF81C00412807DA9DF81C1014A0FDF7F9
:1033700009F9012000F068F90A200EF073FA002024
:103380008DF81C00012207A948F24000FFF746FF14
:10339000002009B000BD0120FBE7000030380240EA
:1033A000001C0240002002404354502049443A256A
:1033B000730D0A0D0A000000393237310000000099
:1033C00044656661756C74205665723A25640D0A11
:1033D000000000002DE9F04105460F461646FEF7B5
:1033E00077FF2820FEF744FFFEF7AEFF2812FEF716
:1033F0003FFFFEF7A9FFE8B2FEF73AFFFEF7A4FF92
:10340000FEF766FF2920FEF733FFFEF79DFF00243D
:103410000BE0711EA14201D0012100E0002108460D
:10342000FEF7FAFE3855601CC4B2B442F1DBFEF779
:103430006FFFBDE8F081000071B583B000200190FE
:1034400000267D480078401C7B49087008460078BB
:103450000A2190FBF1F201FB120018B176480078C6
:103460000A286EDA012203A948F24E10FFF7B2FFD4
:103470009DF80C0000F0800068B19DF80C0000F091
:103480000F000B2807DA00200190012201A948F261
:103490004E1000F007F99DF80C0000F00F00002816
:1034A0004FD09DF80C0000F00F000B28D9DA9DF8E2
:1034B0000C0000F00F014FF6FF70884084B25F48A7
:1034C000858EE04380B240F0C0005C4988860846A3
:1034D0008189C183018C41860020019053E05748C7
:1034E000808E9DF8042001219140084040B354494A
:1034F0009DF8042031F81200062202A9FFF76AFFA6
:103500004E4890F8440000F00100D8B19DF80A0040
:103510009DF80B1000EB012081B2484820309DF847
:10352000042020F812109DF808009DF8091000EB07
:10353000012081B241480C309DF8042020F812107F
:103540001CE051E09DF80A009DF80B1000EB0120F3
:10355000C0F5487081B239480C309DF8042020F83D
:1035600012109DF808009DF8091000EB012081B2AF
:10357000324820309DF8042020F812109DF80400F5
:10358000401CC0B201909DF804000A28A7DB012668
:103590002A4880892B490988884205DC2748008C05
:1035A0002849498888421CDD9DF80C0000F00F0076
:1035B00001280ADD2148C089204988810846408CBD
:1035C000088400201C4908700EE01C48C08B1B4971
:1035D00088810846408E08848020039008468586AE
:1035E00002E00020144908709DF80C0000F08F00E4
:1035F000802816D1114890F8340000F0800030B1D6
:103600000E48808E20F080000C49888609E04FF635
:10361000FF700A49888108840846808E00F4604063
:10362000888605480078F02802DD0A2002490870E3
:10363000304604B070BD0000480002204C0002205B
:1036400006430408D804022038B5054600240020AB
:103650008DF800008DF8015000BF09E09DF80000D2
:103660000F49095D0844C0B28DF80000601CC4B267
:10367000B82CF3D39DF80000C043401CC0B28DF8B5
:103680000000BA22064948F2470000F00BF8022277
:10369000694648F2FF0000F005F8002038BD000040
:1036A0004C4204082DE9F04104460E4617464FF0FF
:1036B0000008FEF70DFE2820FEF7DAFDFEF744FEB7
:1036C0002012FEF7D5FDFEF73FFEE0B2FEF7D0FD7B
:1036D000FEF73AFE00250BE0705DFEF7C9FDFEF730
:1036E00033FE8046B8F1000F00D003E0681CC5B27D
:1036F000BD42F1DB00BFFEF70BFE4046BDE8F081A6
:10370000014691F83500022803D080204865012049
:103710007047052081F835000868006820F0010036
:103720000A6810600020F3E7F8B502460B46002156
:1037300000250024002000BFE4E0012606FA01F580
:103740001E6806EA0504AC4271D15E68022E02D002
:103750005E68122E13D1CF0802F1200656F827001A
:103760004E07F70E0F26BE40B0434F07FF0E1E69EF
:10377000BE403043CF0802F1200646F8270010680B
:103780004F000326BE40B0431E7906F003064F00EB
:10379000BE40304310605E68012E08D05E68022E85
:1037A00005D05E68112E02D05E68122E13D190688B
:1037B0004F000326BE40B0434F00DE68BE4030439A
:1037C0009060506801268E40B0431E79C6F3001603
:1037D0008E4030435060D0684F000326BE40B04357
:1037E0004F009E68BE403043D0605E6806F0805651
:1037F000B6F1805FA8D100BF444E366846F48046DB
:10380000424F3E603E46366806F48046009600BF52
:1038100000BF3F4E8F0856F827008E07370F0F2640
:10382000BE40B0433B4EB24202D100262EE068E0DB
:10383000394EB24201D1012628E0384EB24201D1C0
:10384000022623E0364EB24201D103261EE0354E59
:10385000B24201D1042619E0334EB24201D105260D
:1038600014E0324EB24201D106260FE0304EB24291
:1038700001D107260AE02F4EB24201D1082605E009
:103880002D4EB24201D1092600E00A268F073F0FD4
:10389000BE4030431E4E8F0846F82700274E306842
:1038A000A0435E6806F48036B6F5803F00D1204321
:1038B000224E3060361D3068A0435E6806F4003644
:1038C000B6F5003F00D120431C4E361D3060361D3A
:1038D0003068A0435E6806F48016B6F5801F00D1FC
:1038E0002043164E08363060361D3068A0435E68AF
:1038F00006F40016B6F5001F00D120430F4E0C361B
:103900003060491C1029FFF418AFF8BD443802405C
:103910000838014000000240000402400008024054
:10392000000C024000100240001402400018024047
:10393000001C02400020024000240240003C0140E4
:10394000024613690B400BB1012000E000207047D4
:1039500042694A40426170470AB1816101E00B044B
:103960008361704701480068704700001C00022016
:1039700002480068401C0149086070471C00022092
:1039800010B50848006840F400700649086005203A
:1039900000F06CFA0F2000F007F800F01BFA00208E
:1039A00010BD0000003C024070B5044607480068A6
:1039B0004FF47A71B0FBF1F5284601F0ADFC00221E
:1039C0002146501E00F014FA002070BD00000220B5
:1039D00070B504460E46154600BF94F8A0000128B5
:1039E00001D1022070BD012084F8A00000BF022098
:1039F00084F8A10005EB850101EBC50204F1380153
:103A000001EB820034223146FCF7EAFF2A463146B8
:103A1000204606F04FF901202168486284F8A10091
:103A200000BF002084F8A00000BF00BFDAE700005C
:103A300070B50446002500260CB9012070BD94F82D
:103A4000A10028B9002084F8A000204600F084F8E6
:103A5000022084F8A1002068806920F0704021686D
:103A60008861D4E901010843E168084321690843FA
:103A70002168896908432168886120688068354920
:103A8000084021688860A08A050420688068A169D0
:103A900029430843216888602068C0682D49084090
:103AA0002168C860A08B05042068C068216A29438A
:103AB00008432168C86020680069264908402168D9
:103AC0000861A08C050420680069A16A29430843A5
:103AD00021680861206840691E49084021684861E2
:103AE000A08D050420684069216B294308432168A3
:103AF000486194F83500050294F836000604206801
:103B0000C06A00F07F402168C86246EA050094F868
:103B1000341008432168C96A08432168C8622068D4
:103B2000406B40F00400216848632068406B40F01F
:103B30000200216848632068806940F00100216824
:103B400088610020C4F8A400012084F8A1000020AE
:103B500074E7000000F800F010B586B0044600BF1E
:103B60004748006840F080604549086008460068A2
:103B700000F08060009000BF00BF00BF40481438D4
:103B8000006840F400003E491439086008460068A7
:103B900000F40000009000BF00BF00BF08460068AE
:103BA00040F0020008600846006800F00200009043
:103BB00000BF00BF00BF0846006840F0200008605A
:103BC0000846006800F02000009000BF00BF00BF62
:103BD0000846006840F0400008600846006800F0B1
:103BE0004000009000BF00BF00BF0846006840F0E2
:103BF000800008600846006800F08000009000BF68
:103C000000BF00BF0846006840F4807008600846A6
:103C1000006800F48070009000BF00BF2020019079
:103C20000120029003900320049001A91548FFF79A
:103C30007BFD4FF4806001900220029000200390F1
:103C4000032004900E20059001A90F48FFF76CFD9A
:103C50004FF40C60019001A90C48FFF765FD4FF48B
:103C60007E40019001A90A48FFF75EFD40F2F7602F
:103C7000019001A90748FFF757FD06B010BD0000ED
:103C80004438024000040240001402400018024080
:103C9000001C0240002002402DE9F04104460E467F
:103CA0001746984600BF94F8A000012802D10220D0
:103CB000BDE8F081012084F8A00000BF022084F854
:103CC000A10008EB880000EBC80104F1380000EB0C
:103CD00081052E60A86A30446860AF60E86A3844A5
:103CE000E86042462946204605F0E4FF01202168AD
:103CF000486284F8A10000BF002084F8A00000BF43
:103D000000BFD5E72DE9F04105460E461746984617
:103D100000BF95F8A000012802D10220BDE8F08183
:103D2000012085F8A00000BF022085F8A10008EB63
:103D3000880000EBC80105F1380000EB8104002089
:103D400020602068304460600020A060A068384493
:103D5000E060A662E76242462146284605F0AAFFD7
:103D600001202968486285F8A10000BF002085F87D
:103D7000A00000BF00BFD1E74178154A116001786B
:103D8000F9B1121D41681160017B0907C27A41EA4D
:103D90000261827A41EAC241427B41EA8241827BEE
:103DA00041EA4241C27B41EA0241427A41EA0221B0
:103DB000027A41EA420102781143054A0832116051
:103DC00005E00021024A121D1160121D11607047AA
:103DD00098ED00E0704700BF00F01F020121914004
:103DE0004209920002F1E022C2F8001100BF7047C0
:103DF0002DE9F05F80460D461646002706F064F870
:103E0000074639462A46334601F00700C0F1070A43
:103E1000BAF1040F02D94FF0040A01E0C0F1070A19
:103E2000D14600F1040ABAF1070F02D24FF0000A9E
:103E300001E0A0F1030AD4464FF0010A0AFA09FA98
:103E4000AAF1010A0AEA020A0AFA0CFA4FF0010B77
:103E50000BFA0CFBABF1010B0BEA030B4AEA0B0468
:103E60002146404606F038F8BDE8F09F00BF00F05C
:103E70000702064B19684FF6FF031940044B0B432A
:103E800043EA0221014B196000BF70470CED00E0CE
:103E90000000FA0538B5002400BF2048006840F053
:103EA00080501E4908600846006800F0805000906D
:103EB00000BF00BF1A48006840F48030184908600D
:103EC000FFF750FD044607E0FFF74CFD001BB0F57F
:103ED0007A7F01D9032038BD1148406800F4803052
:103EE000B0F5803FF0D10E48006840F400300C4936
:103EF0000860FFF737FD044607E0FFF733FD001BBE
:103F0000B0F57A7F01D90320E5E70548406800F461
:103F10000030B0F5003FF0D10020DCE7403802402F
:103F2000007000402DE9F8430446002600250027D4
:103F3000A846A946207800F0010088B100BFFE48DD
:103F4000006820F40000FC49086008460068616BC6
:103F50000843F949086000BF606B08B94FF00108D9
:103F6000206800F40020B0F5002F13D1F24884300F
:103F7000006820F44010E16B0843EF498431086089
:103F8000E06BB0F5801F01D14FF00108E06B08B97C
:103F90004FF00109206800F48010B0F5801F13D1A4
:103FA000E5488430006820F44000216C0843E24971
:103FB00084310860206CB0F5800F01D14FF001080A
:103FC000206C08B94FF00109206800F08070B0F152
:103FD000807F01D14FF00108207800F020002028D8
:103FE00070D100BFD4483830006840F08050D249CA
:103FF000383108600846006800F08050009000BF2B
:1040000000BFCE48006840F48070CC490860FFF7DC
:10401000A9FC064607E0FFF7A5FC801B642802D92F
:104020000320BDE8F883C548006800F480700028CC
:10403000F1D0C1486830006800F4407585B3208E27
:1040400000F44070A8422BD0BB486830006820F4D0
:104050004075B9486830006840F48030B64968312E
:1040600008600846006820F4803008600846056053
:10407000006800F0010098B1FFF774FC064608E004
:10408000FFF770FC801B41F28831884201D9032080
:10409000C7E7A94868300068C0F340000028EFD0A7
:1040A00000BF208E00F44070B0F5407F0BD1A248D5
:1040B000006820F4F810A24A216B114008439E4981
:1040C000086006E010E09C48006820F4F8109A4967
:1040D0000860994868300068218EC1F30B010843DD
:1040E00095496831086000BF207800F01000102862
:1040F00010D100BF90488430006820F080708E4955
:104100008431086008460068A16B08438A498431FD
:10411000086000BF208800F48040B0F5804F09D1CE
:1041200085488830006820F44030616E0843824939
:1041300088310860208800F40040B0F5004F09D1B4
:104140007D488830006820F44020A16E08437A49F9
:1041500088310860206800F48030B0F5803F09D1D4
:1041600075488830006820F44010E16E08437249B9
:1041700088310860206800F40030B0F5003F09D1B4
:104180006D488830006820F44000216F08436A4978
:1041900088310860207800F04000402809D1664846
:1041A0008830006820F00300616C08436249883160
:1041B0000860207800F08000802809D15E488830AF
:1041C000006820F00C00A16C08435B49883108604E
:1041D000208800F48070B0F5807F09D1564888307F
:1041E000006820F03000E16C0843534988310860D2
:1041F000208800F40070B0F5007F09D14E48883067
:10420000006820F0C000216D08434B4988310860E8
:10421000208800F48060B0F5806F09D1464888306E
:10422000006820F44070616D08434349883108609C
:10423000208800F40060B0F5006F09D13E48883056
:10424000006820F44060A16D08433B498831086054
:10425000208800F48050B0F5805F09D1364888305E
:10426000006820F44050E16D08433349883108600C
:10427000208800F40050B0F5005F09D12E48883046
:10428000006820F44040216E08432B4988310860C3
:10429000206800F48000B0F5800F09D126488830EE
:1042A000006820F08060A16F0843234988310860CE
:1042B000206800F40010B0F5001F0FD11E488830B0
:1042C000006820F00060E16F08431B4988310860F6
:1042D000E06FB0F1006F01D14FF00109207800F0DC
:1042E0000800082801D14FF00109206800F480205F
:1042F000B0F5802F09D110488830006820F0407058
:10430000616F08430C4988310860206800F40000A0
:10431000B0F5000F0AD108488830006820F08050BE
:10432000D4F880100843044988310860206800F000
:104330008060B0F1806F05E00838024000700040F6
:10434000FFFCFF0F08D1FE48006820F00050D4F8B1
:1043500084100843FA490860206800F00060B0F15A
:10436000006F0AD1F648001F006820F00070D4F8F2
:1043700088100843F249091F0860206800F0805047
:10438000B0F1805F0AD1EE48001F006820F0806025
:10439000D4F88C100843EA49091F0860B8F1010FEE
:1043A00003D02068B0F1007F7DD1E54890380068E7
:1043B00020F08060E24990390860FFF7D3FA0646A2
:1043C00006E0FFF7CFFA801B642801D9032028E616
:1043D000DB4890380068C0F3C0600028F1D1207835
:1043E00000F00100F0B3606BE0BBD5480C3800680A
:1043F00000F440304FF4403191FAA1F1B1FA81F16B
:1044000020FA01F5CE480C38006800F070604FF0DB
:10441000706191FAA1F1B1FA81F120FA01F747F642
:10442000C07191FAA1F1B1FA81F1606888404FF44E
:10443000403191FAA1F1B1FA81F105FA01F1084395
:104440004FF0706191FAA1F1B1FA81F107FA01F12F
:1044500008434FF0E04292FAA2F2B2FA82F2A16867
:10446000914000E003E00843B5490C39086020683A
:1044700000F40020B0F5002F03D1E06BB0F5801FF1
:1044800009D0206800F48010B0F5801F50D1206C56
:10449000B0F5800F4CD1AA480C38006800F44030C9
:1044A0004FF4403100E0CFE091FAA1F1B1FA81F18F
:1044B00020FA01F5A2480C38006800F0E0404FF007
:1044C000E04191FAA1F1B1FA81F120FA01F747F642
:1044D000C07191FAA1F1B1FA81F1606888404FF49E
:1044E000403191FAA1F1B1FA81F105FA01F10843E5
:1044F0004FF0706292FAA2F2B2FA82F2E168914051
:1045000008434FF0E04191FAA1F1B1FA81F107FAC5
:1045100001F108438A490C3908608948001F006886
:1045200020F01F00616A491E08438549091F086081
:10453000206800F08070B0F1807F3FD180480C3857
:10454000006800F070604FF0706191FAA1F1B1FA6B
:1045500081F120FA01F57A480C38006800F0E0405B
:104560004FF0E04191FAA1F1B1FA81F120FA01F79F
:1045700047F6C07191FAA1F1B1FA81F16068884003
:104580004FF4403292FAA2F2B2FA82F221699140DB
:1045900008434FF0706191FAA1F1B1FA81F105FA87
:1045A00001F108434FF0E04191FAA1F1B1FA81F134
:1045B00007FA01F1084362490C390860206800F0ED
:1045C0000070B0F1007F25D147F6C07191FAA1F1DA
:1045D000B1FA81F1606888404FF4403292FAA2F259
:1045E000B2FA82F22169914008434FF0706292FA68
:1045F000A2F2B2FA82F2E168914008434FF0E04241
:1046000092FAA2F2B2FA82F2A168914008434C49B0
:104610000C3908604A489038006840F0806048498A
:1046200090390860FFF79EF9064606E0FFF79AF911
:10463000801B642801D90320F3E4414890380068C6
:10464000C0F3C0600028F1D0B9F1010F69D13C4836
:104650009038006820F08050394990390860FFF7A1
:1046600081F9064606E0FFF77DF9801B642801D931
:104670000320D6E4324890380068C0F34070002828
:10468000F1D1206800F40020B0F5002F01D1E06BDB
:1046900038B1206800F48010B0F5801F4FD1206C35
:1046A000F0BB27480838006800F440304FF4403130
:1046B00091FAA1F1B1FA81F120FA01F52048083808
:1046C000006800F0E0404FF0E04191FAA1F1B1FA4A
:1046D00081F120FA01F747F6C07191FAA1F1B1FA20
:1046E00081F1606988404FF4403191FAA1F1B1FA4B
:1046F00081F105FA01F108434FF0706292FAA2F2DB
:10470000B2FA82F2A169914008434FF0E04191FA78
:10471000A1F1B1FA81F107FA01F10843084901E07A
:104720000DE0BBE008390860081D006820F4F8516E
:10473000A06A401E41EA00200149091F086001E00B
:1047400090380240206800F40010B0F5001F40D1FE
:10475000E06FB0F1006F3CD15148006800F070602C
:104760004FF0706191FAA1F1B1FA81F120FA01F5EF
:104770004B48006800F0E0404FF0E04191FAA1F1B1
:10478000B1FA81F120FA01F747F6C07191FAA1F16F
:10479000B1FA81F1606988404FF4403292FAA2F296
:1047A000B2FA82F2216A914008434FF0706191FAA7
:1047B000A1F1B1FA81F105FA01F108434FF0E041AE
:1047C00091FAA1F1B1FA81F107FA01F108433449F4
:1047D0000860207800F00800082845D130480068BB
:1047E00000F070604FF0706191FAA1F1B1FA81F1BF
:1047F00020FA01F52A48006800F440304FF44031B7
:1048000091FAA1F1B1FA81F120FA01F747F6C071EE
:1048100091FAA1F1B1FA81F1606988404FF4403119
:1048200091FAA1F1B1FA81F107FA01F108434FF0D1
:10483000706191FAA1F1B1FA81F105FA01F1084331
:104840004FF0E04292FAA2F2B2FA82F2E1699140AC
:10485000084313490860081D006820F44030E16AED
:1048600008430F49091D08600D488838006840F06A
:1048700080500B4988390860FFF774F8064606E057
:10488000FFF770F8801B642801D903209FE50448D6
:1048900088380068C0F340700028F1D0002096E509
:1048A0008838024070B504460D4600266648006808
:1048B00000F00F00A8420ED26348006820F00F00FD
:1048C0002843614908600846006800F00F00A842CC
:1048D00001D0012070BD207800F00200022807D12D
:1048E0005A48006820F0F000A16808435749086062
:1048F000207800F00100002860D06068012807D10E
:10490000524808380068C0F34040A0B90120E1E7F0
:104910006068022807D14D4808380068C0F340603D
:1049200048B90120D6E7494808380068C0F340007C
:1049300008B90120CEE74548006820F0030061680F
:10494000084342490860FFF70DF8064660680128F1
:1049500010D108E0FFF706F8801B41F28831884249
:1049600001D90320B6E73948006800F00C0004289C
:10497000F0D123E06068022810D108E0FEF7F2FFD2
:10498000801B41F28831884201D90320A2E72F48D9
:10499000006800F00C000828F0D10FE008E0FEF7F6
:1049A000E1FF801B41F28831884201D9032091E761
:1049B0002648006800F00C000028F0D1224800686A
:1049C00000F00F00A8420ED91F48006820F00F0029
:1049D00028431D4908600846006800F00F00A842FF
:1049E00001D0012076E7207800F00400042807D1E8
:1049F0001648006820F4E050E16808431349086055
:104A0000207800F00800082808D11048006820F439
:104A10006040216940EAC1000C49086000F04EF88E
:104A20000A49096801F0F001F02292FAA2F2B2FA02
:104A300082F2D140064A515CC840064908600F2006
:104A4000FEF7B2FF002045E7003C02400838024074
:104A50001EFA0308000002200148006870470000A9
:104A60000000022000B5FFF7F7FF0749096801F4CD
:104A7000E0514FF4E05292FAA2F2B2FA82F2D1403F
:104A8000024A515CC84000BD083802402EFA0308B3
:104A900000B5FFF7E1FF0749096801F460414FF4F1
:104AA000604292FAA2F2B2FA82F2D140024A515C1A
:104AB000C84000BD083802402EFA030870B5002136
:104AC000002200230020274C246804F00C0424B1A9
:104AD000042C04D0082C41D103E0234840E02348B3
:104AE0003EE0204C241F246804F03F011D4C241F8D
:104AF000246804F4800484B11C4CB4FBF1F5194C17
:104B0000241F246847F6C076344096FAA6F6B6FA13
:104B100086F6F44005FB04F20FE0134CB4FBF1F50C
:104B2000104C241F246847F6C076344096FAA6F647
:104B3000B6FA86F6F44005FB04F20A4C241F2468FA
:104B400004F440344FF4403595FAA5F5B5FA85F5EF
:104B5000EC40641C6300B2FBF3F001E0024800BFCC
:104B600000BF70BD083802400024F40040787D0189
:104B700038B504460025207800F00100002871D0E7
:104B8000FE48006800F00C0004280DD0FB480068C7
:104B900000F00C00082813D1F848001F006800F44A
:104BA0008000B0F5800F0BD1F44808380068C0F3DE
:104BB0004040002869D06068002866D1012038BDD7
:104BC00000BF6068B0F5803F08D1EC480838006845
:104BD00040F48030E949083908602EE0606868B91F
:104BE000E6480838006820F48030E4490839086055
:104BF0000846006820F4802008601EE06068B0F578
:104C0000A02F0DD1DD480838006840F48020DB4932
:104C1000083908600846006840F4803008600CE0FD
:104C2000D6480838006820F48030D4490839086034
:104C30000846006820F48020086000BF606890B1DA
:104C4000FEF790FE054606E0FEF78CFE401B64284A
:104C500001D90320B3E7C94808380068C0F34040D1
:104C60000028F1D011E0FEF77DFE054606E0FEF7D4
:104C700079FE401B642801D90320A0E7BF4808380B
:104C80000068C0F340400028F1D1207800F0020015
:104C9000022873D1B948006800F00C0058B1B74839
:104CA000006800F00C00082821D1B448001F0068FB
:104CB00000F48000D8B9B14808380068C0F340005B
:104CC00020B1E068012801D0012078E7AB4808381E
:104CD000006820F0F800F82292FAA2F2B2FA82F20A
:104CE000216991400843A5490839086046E0E06819
:104CF00050B3A2480838006840F001009F490839C5
:104D00000860FEF72FFE054606E0FEF72BFE401B6F
:104D1000022801D9032052E7984808380068C0F3F8
:104D200040000028F1D095480838006820F0F800CD
:104D3000F82292FAA2F2B2FA82F221699140084373
:104D40008E490839086019E08C480838006820F05E
:104D500001008A4908390860FEF704FE054606E0AE
:104D6000FEF700FE401B022801D9032027E78348F5
:104D700008380068C0F340000028F1D1207800F026
:104D80000800082836D16069D0B17C486C300068D2
:104D900040F0010079496C310860FEF7E3FD0546FB
:104DA00006E0FEF7DFFD401B022801D9032006E7DD
:104DB00072486C300068C0F340000028F1D019E060
:104DC0006E486C30006820F001006C496C3108605E
:104DD000FEF7C8FD054606E0FEF7C4FD401B0228AD
:104DE00001D90320EBE665486C300068C0F3400051
:104DF0000028F1D1207800F00400042871D100BF10
:104E00005E483830006840F080505C4938310860B6
:104E10000846006800F08050009000BF00BF58486E
:104E2000006840F4807056490860FEF79BFD054617
:104E300006E0FEF797FD401B642801D90320BEE67B
:104E40004F48006800F480700028F2D000BFA068CE
:104E5000012808D149486830006840F001004749FE
:104E6000683108602DE0A06868B94448683000687F
:104E700020F001004149683108600846006820F0D0
:104E8000040008601DE0A06805280DD13B4868308B
:104E9000006840F00400394968310860084600683D
:104EA00040F0010008600CE034486830006820F0F1
:104EB00001003249683108600846006820F00400AB
:104EC000086000BFA068A8B1FEF74CFD054609E0E8
:104ED000FEF748FD401B41F28831884202D9032089
:104EE0006DE61BE0254868300068C0F340000028EC
:104EF000EED013E0FEF736FD054608E0FEF732FD82
:104F0000401B41F28831884201D9032057E61B48F3
:104F100068300068C0F340000028EFD1A06988B372
:104F20001648006800F00C00082873D0A069022819
:104F300064D112480838006820F080700F490839A1
:104F40000860FEF70FFD054606E0FEF70BFD401B6F
:104F5000022801D9032032E6084808380068C0F367
:104F600040600028F1D1D4E90701084347F6C07238
:104F700092FAA2F2B2FA82F2616A04E008380240C0
:104F80000070004058E0914008430122A16AC2EB42
:104F900051014FF4403292FAA2F2B2FA82F29140F9
:104FA00008434FF0706292FAA2F2B2FA82F2E16A1A
:104FB000914008434FF0E04292FAA2F2B2FA82F234
:104FC000216B914008431D490860081F006840F0AC
:104FD0008070091F0860FEF7C5FC054606E0FEF775
:104FE000C1FC401B022801D90320E8E51348001F3B
:104FF0000068C0F340600028F1D01DE00F48001F9A
:10500000006820F080700D49091F0860FEF7AAFCB7
:10501000054607E00EE0FEF7A5FC401B022801D97B
:105020000320CCE50548001F0068C0F3406000285D
:10503000F1D101E00120C2E50020C0E504380240C2
:1050400070B504460D460CB9012070BD94F82C00D3
:1050500028B9002084F82D00204600F011F8022025
:1050600084F82C00211D2068FDF76FFA2946D4E949
:105070000002FDF7D5FA012084F82C000020E4E7B7
:1050800010B586B0044600BF3E48006840F00100FD
:105090003C4908600846006800F00100009000BF2D
:1050A00000BF00BF37480838006840F004003549A9
:1050B000083908600846006800F00400009000BF4E
:1050C00000BF00BF0846006840F0080008600846BE
:1050D000006800F00800009000BF00BF00BF084655
:1050E000006840F0100008600846006800F01000FA
:1050F000009000BF00BF00BF0846006840F02000DD
:1051000008600846006800F02000009000BF00BF63
:1051100000BF0846006840F040000860084600688C
:1051200000F04000009000BF00BF0D200190022061
:10513000029001200390032004900C20059001A907
:105140001148FEF7F1FA4CF20370019001A90F48E3
:10515000FEF7EAFA4FF68370019001A90C48FEF7BA
:10516000E3FA4FF63F00019001A90A48FEF7DCFA86
:1051700048F23710019001A90748FEF7D5FA06B0AA
:1051800010BD00003838024000080240000C024008
:1051900000100240001402400018024070B504469E
:1051A0000D4694F82C00022800D170BD022084F82E
:1051B0002C0029462068FDF702FA012084F82C0013
:1051C0000020F2E770B504460D46164694F82C0010
:1051D000022800D170BD022084F82C0032462946F6
:1051E0002068FDF7F3F92868022803D1052084F828
:1051F0002C0002E0012084F82C000020EAE770B5C2
:1052000004460E4615460CB9012070BD94F84500C1
:1052100028B9002084F84400204600F01DF804F16D
:1052200008012068FDF722F93146A2682068FDF7E1
:105230005DF92946E36AD4E90102FDF7F3F8A168B4
:10524000206850F8210040F00100A268216841F870
:1052500022000020D9E7000010B586B0044600BF48
:105260002048006840F001001E49086008460068B8
:1052700000F00100009000BF00BF00BF19480838CF
:10528000006840F0080017490839086008460068BF
:1052900000F00800009000BF00BF00BF0846006893
:1052A00040F0100008600846006800F01000009010
:1052B00000BF00BF4EF2B3700190022002900120A7
:1052C0000390032004900C20059001A90648FEF7E6
:1052D0002BFA4FF68070019001A90448FEF724FADA
:1052E00006B010BD38380240000C024000100240E9
:1052F000042808D14FF0E021096941F004014FF082
:10530000E022116107E04FF0E021096921F004017A
:105310004FF0E0221161704770B504462546681EC3
:10532000B0F1807F01D301200FE0681E4FF0E02133
:1053300048610F214FF0FF3004F0CEFD00204FF008
:10534000E021886107200861002070BD7047704728
:10535000704710B5044620680069C0F34000D8B11A
:105360002068C068C0F34000B0B16FF0020021684F
:105370000861012020762068806900F0030018B1E0
:105380002046FFF7E5FF05E0204600F0BEF8204686
:1053900000F0BCF80020207620680069C0F380008F
:1053A000D8B12068C068C0F38000B0B16FF00400CD
:1053B00021680861022020762068806900F440702E
:1053C00018B12046FFF7C4FF05E0204600F09DF825
:1053D000204600F09BF80020207620680069C0F38A
:1053E000C000D8B12068C068C0F3C000B0B16FF091
:1053F000080021680861042020762068C06900F058
:10540000030018B12046FFF7A3FF05E0204600F097
:105410007CF8204600F07AF80020207620680069A9
:10542000C0F30010D8B12068C068C0F30010B0B15C
:105430006FF0100021680861082020762068C0699C
:1054400000F4407018B12046FFF782FF05E02046C7
:1054500000F05BF8204600F059F800202076206824
:10546000006900F0010058B12068C06800F0010038
:1054700030B16FF0010021680861204600F047F864
:1054800020680069C0F3C01058B12068C068C0F33C
:10549000C01030B16FF08000216808612046FFF72E
:1054A00055FF20680069C0F3002058B12068C0682B
:1054B000C0F3C01030B16FF0800021680861204651
:1054C000FFF744FF20680069C0F3801058B12068DE
:1054D000C068C0F3801030B16FF0400021680861EF
:1054E000204600F015F820680069C0F3401058B15C
:1054F0002068C068C0F3401030B16FF02000216810
:1055000008612046FFF723FF10BD704770477047C2
:105510007047704701460022002391F8692091F8F6
:105520006A3042EA030070472DE9F04104462068E2
:10553000C569206806682068876805F00F08B8F11B
:10554000000F0AD105F0200038B106F0200020B18C
:10555000204606F090F8BDE8F081B8F1000F79D050
:1055600040F201103840002874D005F0010048B125
:1055700006F4807030B1012021680862E06E40F0CE
:105580000100E06605F0020048B107F0010030B10B
:10559000022021680862E06E40F00400E06605F039
:1055A000040048B107F0010030B10420216808620E
:1055B000E06E40F00200E06605F0080060B106F021
:1055C000200010B907F0010030B1082021680862FE
:1055D000E06E40F00800E066E06E58B305F0200091
:1055E00028B106F0200010B1204606F044F8E06E25
:1055F00000F0080020B92068806800F0400018B36F
:10560000204606F018F82068806800F04000B8B125
:105610002068806820F0400021688860606E50B18A
:105620001748616E0865606EFEF76AF810B1606E2B
:10563000016D88470DE02046FFF76BFF09E009E0A8
:105640002046FFF766FF04E02046FFF762FF0020D8
:10565000E06680E705F0800030B106F0800018B108
:10566000204606F013FA76E705F0400030B106F068
:10567000400018B1204605F0EEFF6CE700BF6AE776
:105680001FB6000810B504460CB9012010BDA06972
:1056900000B100E000BF94F8690028B9002084F848
:1056A0006800204600F02AF8242084F86900206869
:1056B000006820F0010021680860204606F020F80C
:1056C000012800D1E2E7606A10B1204605F0F8FE3B
:1056D0002068406820F49040216848602068806815
:1056E00020F02A00216888602068006840F00100EE
:1056F00021680860204605F058FFC7E710B586B05E
:1057000004462049206888423AD100BF1E480068FC
:1057100040F001001C4908600846006800F00100E4
:10572000009000BF00BF00BF17481430006840F071
:1057300010001549143108600846006800F0100098
:10574000009000BF00BF4815019002200290012088
:105750000390022004900720059001A90B48FDF753
:10576000E3FF4FF48060019001A90848FDF7DCFFDA
:105770002520FEF730FB032211462520FEF738FBDB
:1057800006B010BD00100140303802400000024059
:1057900010B5034693F86A0020285BD101B10AB91D
:1057A000012010BD00BF93F86800012801D102203C
:1057B000F7E7012083F8680000BF5965A3F8582077
:1057C000A3F85A2000BF9868B0F5805F0AD1186925
:1057D00020B940F2FF10A3F85C001CE0FF20A3F802
:1057E0005C0018E0986848B9186918B9FF20A3F858
:1057F0005C0010E07F20A3F85C000CE09868B0F13A
:10580000805F08D1186918B97F20A3F85C0002E016
:105810003F20A3F85C0000BF0020D866222083F858
:105820006A0000BF002083F8680000BF18680068A5
:1058300040F480701C6820601868806840F00100A7
:105840001C68A0601868006840F020001C68206098
:105850000020A6E70220A4E71D4A0168914236D144
:105860001C49098801F4004189BB1A49098801F4DF
:10587000804171B1184909780A2903D00021154ADD
:10588000118024E01349098841F40041114A118034
:105890001DE0114909780D2906D10E49098841F406
:1058A00080410C4A118012E00B490978094A12889C
:1058B000C2F30D02094B995406490988491C054A4F
:1058C000118011460988C72901DD00211180704728
:1058D000001001402C0002202E0002202003022094
:1058E000704700BFFEE7000010B5002210211248EB
:1058F000FEF732F81048006820F440600E49086056
:105900000846006840F480600860002220210A48B0
:10591000FEF722F802200BF0C5FF012210210648F5
:10592000FEF71AF802200BF0BDFF002210210248FA
:10593000FEF712F810BD0000001C024000B587B051
:1059400000BF1248006840F0800010490860084617
:10595000006800F08000019000BF00BF302002907E
:105960000120039004900220059002A90848FDF749
:10597000DBFE012220210648FDF7EEFF0122102167
:105980000348FDF7E9FF07B000BD000030380240D2
:10599000001C024010B5002210211248FDF7DCFF68
:1059A0001048006820F440600E490860084600680E
:1059B00040F480600860012220210A48FDF7CCFFF6
:1059C00002200BF06FFF012210210648FDF7C4FFF3
:1059D00002200BF067FF002210210248FDF7BCFFF8
:1059E00010BD0000001C024070B505460024184898
:1059F000006820F4406016490860084600680860A6
:105A000000261AE0002210211148FDF7A5FF022010
:105A10000BF048FF012210210D48FDF79DFF6006A5
:105A2000040E20210A48FDF78BFF08B1601CC4B2A8
:105A300001200BF037FF701CC6B2082EE2DB15B94F
:105A4000FFF7A8FF01E0FFF74FFF204670BD000001
:105A5000001C024070B504461C48006820F44060F9
:105A60001A4908600846006840F480600860002217
:105A700010211648FDF770FF002523E0E00928B14A
:105A8000012220211148FDF767FF04E000222021B8
:105A90000E48FDF761FF6006040E02200BF002FFC6
:105AA000012210210948FDF757FF02200BF0FAFEF2
:105AB000002210210548FDF74FFF02200BF0F2FEF7
:105AC000681CC5B2082DD9DB70BD0000001C024067
:105AD00010B51348006820F440601149086008467A
